ARM Linker, 4.1 [Build 481] [Standard]

==============================================================================

Section Cross References

    stm32f10x_can.o(i.CAN_DeInit) refers to stm32f10x_rcc.o(i.RCC_APB1PeriphResetCmd) for RCC_APB1PeriphResetCmd
    stm32f10x_can.o(i.CAN_GetITStatus) refers to stm32f10x_can.o(i.CheckITStatus) for CheckITStatus
    stm32f10x_can.o(i.CAN_Receive) refers to stm32f10x_can.o(i.CAN_FIFORelease) for CAN_FIFORelease
    stm32f10x_flash.o(i.FLASH_EnableWriteProtection) refers to stm32f10x_flash.o(i.FLASH_WaitForLastOperation) for FLASH_WaitForLastOperation
    stm32f10x_flash.o(i.FLASH_EraseAllBank1Pages) refers to stm32f10x_flash.o(i.FLASH_WaitForLastBank1Operation) for FLASH_WaitForLastBank1Operation
    stm32f10x_flash.o(i.FLASH_EraseAllPages) refers to stm32f10x_flash.o(i.FLASH_WaitForLastOperation) for FLASH_WaitForLastOperation
    stm32f10x_flash.o(i.FLASH_EraseOptionBytes) refers to stm32f10x_flash.o(i.FLASH_GetReadOutProtectionStatus) for FLASH_GetReadOutProtectionStatus
    stm32f10x_flash.o(i.FLASH_EraseOptionBytes) refers to stm32f10x_flash.o(i.FLASH_WaitForLastOperation) for FLASH_WaitForLastOperation
    stm32f10x_flash.o(i.FLASH_ErasePage) refers to stm32f10x_flash.o(i.FLASH_WaitForLastOperation) for FLASH_WaitForLastOperation
    stm32f10x_flash.o(i.FLASH_ProgramHalfWord) refers to stm32f10x_flash.o(i.FLASH_WaitForLastOperation) for FLASH_WaitForLastOperation
    stm32f10x_flash.o(i.FLASH_ProgramOptionByteData) refers to stm32f10x_flash.o(i.FLASH_WaitForLastOperation) for FLASH_WaitForLastOperation
    stm32f10x_flash.o(i.FLASH_ProgramWord) refers to stm32f10x_flash.o(i.FLASH_WaitForLastOperation) for FLASH_WaitForLastOperation
    stm32f10x_flash.o(i.FLASH_ReadOutProtection) refers to stm32f10x_flash.o(i.FLASH_WaitForLastOperation) for FLASH_WaitForLastOperation
    stm32f10x_flash.o(i.FLASH_UserOptionByteConfig) refers to stm32f10x_flash.o(i.FLASH_WaitForLastOperation) for FLASH_WaitForLastOperation
    stm32f10x_flash.o(i.FLASH_WaitForLastBank1Operation) refers to stm32f10x_flash.o(i.FLASH_GetBank1Status) for FLASH_GetBank1Status
    stm32f10x_flash.o(i.FLASH_WaitForLastOperation) refers to stm32f10x_flash.o(i.FLASH_GetBank1Status) for FLASH_GetBank1Status
    stm32f10x_gpio.o(i.GPIO_AFIODeInit) refers to stm32f10x_rcc.o(i.RCC_APB2PeriphResetCmd) for RCC_APB2PeriphResetCmd
    stm32f10x_gpio.o(i.GPIO_DeInit) refers to stm32f10x_rcc.o(i.RCC_APB2PeriphResetCmd) for RCC_APB2PeriphResetCmd
==============================================================================

Removing Unused input sections from the image.

    Removing misc.o(i.NVIC_SetVectorTable), (20 bytes).
    Removing misc.o(i.NVIC_SystemLPConfig), (24 bytes).
    Removing stm32f10x_can.o(i.CAN_ClearFlag), (48 bytes).
    Removing stm32f10x_can.o(i.CAN_DBGFreeze), (20 bytes).
    Removing stm32f10x_can.o(i.CAN_GetFlagStatus), (52 bytes).
    Removing stm32f10x_can.o(i.CAN_GetITStatus), (188 bytes).
    Removing stm32f10x_can.o(i.CAN_MessagePending), (22 bytes).
    Removing stm32f10x_can.o(i.CAN_StructInit), (32 bytes).
    Removing stm32f10x_can.o(i.CAN_TransmitStatus), (120 bytes).
    Removing stm32f10x_can.o(i.CAN_WakeUp), (42 bytes).
    Removing stm32f10x_can.o(i.CheckITStatus), (12 bytes).
    Removing stm32f10x_flash.o(i.FLASH_ClearFlag), (12 bytes).
    Removing stm32f10x_flash.o(i.FLASH_EnableWriteProtection), (172 bytes).
    Removing stm32f10x_flash.o(i.FLASH_EraseAllBank1Pages), (56 bytes).
    Removing stm32f10x_flash.o(i.FLASH_EraseAllPages), (56 bytes).
    Removing stm32f10x_flash.o(i.FLASH_EraseOptionBytes), (124 bytes).
    Removing stm32f10x_flash.o(i.FLASH_GetFlagStatus), (32 bytes).
    Removing stm32f10x_flash.o(i.FLASH_GetPrefetchBufferStatus), (20 bytes).
==============================================================================

Image Symbol Table

    Local Symbols

    Symbol Name                              Value     Ov Type        Size  Object(Section)

    ../../../cmprslib/zerorunl2.c            0x00000000   Number         0  __dczerorl2.o ABSOLUTE
    ../../microlib/d2f.c                     0x00000000   Number         0  d2f.o ABSOLUTE
    ../../microlib/division.c                0x00000000   Number         0  uidiv.o ABSOLUTE
    ../../microlib/division.c                0x00000000   Number         0  uldiv.o ABSOLUTE
    ../../microlib/f2d.c                     0x00000000   Number         0  f2d.o ABSOLUTE
    ../../microlib/fpadd.c                   0x00000000   Number         0  dadd.o ABSOLUTE
    ../../microlib/fpadd.c                   0x00000000   Number         0  fadd.o ABSOLUTE
    ../../microlib/fpdiv.c                   0x00000000   Number         0  fdiv.o ABSOLUTE
    ../../microlib/fpdiv.c                   0x00000000   Number         0  ddiv.o ABSOLUTE
    ../../microlib/fpepilogue.c              0x00000000   Number         0  fepilogue.o ABSOLUTE
    ../../microlib/fpepilogue.c              0x00000000   Number         0  depilogue.o ABSOLUTE
    ../../microlib/fpfix.c                   0x00000000   Number         0  dfixul.o ABSOLUTE
    ../../microlib/fpfix.c                   0x00000000   Number         0  dfixui.o ABSOLUTE
    ../../microlib/fpfix.c                   0x00000000   Number         0  ffixui.o ABSOLUTE
    ../../microlib/fpflt.c                   0x00000000   Number         0  dflti.o ABSOLUTE
    ../../microlib/fpflt.c                   0x00000000   Number         0  fflti.o ABSOLUTE
    ../../microlib/fpflt.c                   0x00000000   Number         0  ffltui.o ABSOLUTE
    ../../microlib/fpflt.c                   0x00000000   Number         0  dfltui.o ABSOLUTE
    ../../microlib/fpmul.c                   0x00000000   Number         0  dmul.o ABSOLUTE
    ../../microlib/fpmul.c                   0x00000000   Number         0  fmul.o ABSOLUTE
    ../../microlib/fpscalb.c                 0x00000000   Number         0  fscalb.o ABSOLUTE
    ../../microlib/init/entry.s              0x00000000   Number         0  entry5.o ABSOLUTE
    ../../microlib/init/entry.s              0x00000000   Number         0  entry7.o ABSOLUTE
    ../../microlib/init/entry.s              0x00000000   Number         0  entry.o ABSOLUTE
    ../../microlib/init/entry.s              0x00000000   Number         0  entry2.o ABSOLUTE
    ../../microlib/longlong.c                0x00000000   Number         0  llushr.o ABSOLUTE
    ../../microlib/longlong.c                0x00000000   Number         0  llsshr.o ABSOLUTE
    ../../microlib/longlong.c                0x00000000   Number         0  llshl.o ABSOLUTE
    ../../microlib/printf/printf.c           0x00000000   Number         0  printf2.o ABSOLUTE
    ../../microlib/printf/printf.c           0x00000000   Number         0  printfa.o ABSOLUTE
    ../../microlib/printf/printf.c           0x00000000   Number         0  printf1.o ABSOLUTE
    ../../microlib/printf/printf.c           0x00000000   Number         0  printf7.o ABSOLUTE
    ../../microlib/printf/printf.c           0x00000000   Number         0  printf6.o ABSOLUTE
    ../../microlib/printf/printf.c           0x00000000   Number         0  printf8.o ABSOLUTE
    ../../microlib/printf/printf.c           0x00000000   Number         0  printf0.o ABSOLUTE
    ../../microlib/printf/printf.c           0x00000000   Number         0  printfb.o ABSOLUTE
    ../../microlib/printf/printf.c           0x00000000   Number         0  printf3.o ABSOLUTE
    ../../microlib/printf/printf.c           0x00000000   Number         0  printf4.o ABSOLUTE
    ../../microlib/printf/printf.c           0x00000000   Number         0  printf5.o ABSOLUTE
    ../../microlib/printf/stubs.s            0x00000000   Number         0  stubs.o ABSOLUTE
    ../../microlib/stdio/fputc.c             0x00000000   Number         0  fputc.o ABSOLUTE
    ../../microlib/stdio/streams.c           0x00000000   Number         0  stdout.o ABSOLUTE
    ../../microlib/string/memcpy.c           0x00000000   Number         0  memcpyb.o ABSOLUTE
    ../../microlib/string/memcpy.c           0x00000000   Number         0  memcpya.o ABSOLUTE
    ../../microlib/string/memset.c           0x00000000   Number         0  memseta.o ABSOLUTE
    ../../microlib/string/strlen.c           0x00000000   Number         0  strlen.o ABSOLUTE
    ../../microlib/string/strstr.c           0x00000000   Number         0  strstr.o ABSOLUTE
    ../../microlib/stubs.s                   0x00000000   Number         0  iusefp.o ABSOLUTE
    ../../microlib/stubs.s                   0x00000000   Number         0  iusesemip.o ABSOLUTE
    ..\\software\\Libraries\\CMSIS\\CM3\\CoreSupport\\core_cm3.c 0x00000000   Number         0  core_cm3.o ABSOLUTE
    ..\\software\\source\\source\\bsp.c      0x00000000   Number         0  bsp.o ABSOLUTE
    ..\software\Libraries\CMSIS\CM3\CoreSupport\core_cm3.c 0x00000000   Number         0  core_cm3.o ABSOLUTE
    ..\software\Libraries\CMSIS\CM3\DeviceSupport\ST\STM32F10x\startup\arm\startup_stm32f10x_md.s 0x00000000   Number         0  startup_stm32f10x_md.o ABSOLUTE
    ..\software\Libraries\STM32F10x_StdPeriph_Driver\src\misc.c 0x00000000   Number         0  misc.o ABSOLUTE
    ..\software\Libraries\STM32F10x_StdPeriph_Driver\src\stm32f10x_adc.c 0x00000000   Number         0  stm32f10x_adc.o ABSOLUTE
    ..\software\Libraries\STM32F10x_StdPeriph_Driver\src\stm32f10x_can.c 0x00000000   Number         0  stm32f10x_can.o ABSOLUTE
    ..\software\Libraries\STM32F10x_StdPeriph_Driver\src\stm32f10x_dma.c 0x00000000   Number         0  stm32f10x_dma.o ABSOLUTE
    ..\software\Libraries\STM32F10x_StdPeriph_Driver\src\stm32f10x_flash.c 0x00000000   Number         0  stm32f10x_flash.o ABSOLUTE
    ..\software\Libraries\STM32F10x_StdPeriph_Driver\src\stm32f10x_gpio.c 0x00000000   Number         0  stm32f10x_gpio.o ABSOLUTE
    ..\software\Libraries\STM32F10x_StdPeriph_Driver\src\stm32f10x_iwdg.c 0x00000000   Number         0  stm32f10x_iwdg.o ABSOLUTE
    ..\software\Libraries\STM32F10x_StdPeriph_Driver\src\stm32f10x_pwr.c 0x00000000   Number         0  stm32f10x_pwr.o ABSOLUTE
    ..\software\Libraries\STM32F10x_StdPeriph_Driver\src\stm32f10x_rcc.c 0x00000000   Number         0  stm32f10x_rcc.o ABSOLUTE
    ..\software\Libraries\STM32F10x_StdPeriph_Driver\src\stm32f10x_tim.c 0x00000000   Number         0  stm32f10x_tim.o ABSOLUTE
    ..\software\Libraries\STM32F10x_StdPeriph_Driver\src\stm32f10x_usart.c 0x00000000   Number         0  stm32f10x_usart.o ABSOLUTE
    ..\software\libset\stm32f10x_it.c        0x00000000   Number         0  stm32f10x_it.o ABSOLUTE
    ..\software\libset\system_stm32f10x.c    0x00000000   Number         0  system_stm32f10x.o ABSOLUTE
    ..\software\source\app\tools.c           0x00000000   Number         0  tools.o ABSOLUTE
    ..\software\source\source\Obdii.c        0x00000000   Number         0  obdii.o ABSOLUTE
    ..\software\source\source\OilArith.c     0x00000000   Number         0  oilarith.o ABSOLUTE
    ..\software\source\source\bsp.c          0x00000000   Number         0  bsp.o ABSOLUTE
    ..\software\source\source\bspobdii.c     0x00000000   Number         0  bspobdii.o ABSOLUTE
    ..\software\source\source\driver_can.c   0x00000000   Number         0  driver_can.o ABSOLUTE
    ..\software\source\source\main.c         0x00000000   Number         0  main.o ABSOLUTE
    ..\software\source\source\pidarith.c     0x00000000   Number         0  pidarith.o ABSOLUTE
    ..\software\source\source\protocol.c     0x00000000   Number         0  protocol.o ABSOLUTE
    cdrcmple.s                               0x00000000   Number         0  cdrcmple.o ABSOLUTE
    cfcmple.s                                0x00000000   Number         0  cfcmple.o ABSOLUTE
    dc.s                                     0x00000000   Number         0  dc.o ABSOLUTE
    handlers.s                               0x00000000   Number         0  handlers.o ABSOLUTE
    init.s                                   0x00000000   Number         0  init.o ABSOLUTE
    RESET                                    0x08000000   Section      236  startup_stm32f10x_md.o(RESET)
    .ARM.Collect$$$$00000000                 0x080000ec   Section        0  entry.o(.ARM.Collect$$$$00000000)
    .ARM.Collect$$$$00000001                 0x080000ec   Section        4  entry2.o(.ARM.Collect$$$$00000001)
    .ARM.Collect$$$$00000004                 0x080000f0   Section        4  entry5.o(.ARM.Collect$$$$00000004)
    .ARM.Collect$$$$00000007                 0x080000f4   Section        8  entry7.o(.ARM.Collect$$$$00000007)
    .ARM.Collect$$$$00002712                 0x080000fc   Section        4  entry2.o(.ARM.Collect$$$$00002712)
    __lit__00000000                          0x080000fc   Data           4  entry2.o(.ARM.Collect$$$$00002712)
    .text                                    0x08000100   Section       36  startup_stm32f10x_md.o(.text)
    .text                                    0x08000124   Section        0  memcpya.o(.text)
    .text                                    0x08000148   Section        0  memseta.o(.text)
    .text                                    0x0800016e   Section        0  strlen.o(.text)
    .text                                    0x0800017e   Section        0  fadd.o(.text)
    .text                                    0x0800022e   Section        0  fmul.o(.text)
    .text                                    0x0800029a   Section        0  fdiv.o(.text)
    .text                                    0x0800031a   Section        0  fscalb.o(.text)
    .text                                    0x08000332   Section        0  dadd.o(.text)
    .text                                    0x0800047c   Section        0  dmul.o(.text)
    .text                                    0x0800055e   Section        0  ddiv.o(.text)
    .text                                    0x0800063c   Section        0  fflti.o(.text)
    .text                                    0x0800064e   Section        0  ffltui.o(.text)
    .text                                    0x08000658   Section        0  dfltui.o(.text)
    .text                                    0x08000672   Section        0  ffixui.o(.text)
    .text                                    0x0800069a   Section        0  dfixui.o(.text)
    .text                                    0x080006c8   Section        0  f2d.o(.text)
    .text                                    0x080006f4   Section        0  d2f.o(.text)
    .text                                    0x0800072c   Section       20  cfcmple.o(.text)
    .text                                    0x08000740   Section        0  uidiv.o(.text)
    .text                                    0x0800076c   Section        0  uldiv.o(.text)
    .text                                    0x080007d2   Section        0  llshl.o(.text)
    .text                                    0x080007f0   Section        0  llushr.o(.text)
    .text                                    0x08000810   Section        0  llsshr.o(.text)
    .text                                    0x08000834   Section        0  fepilogue.o(.text)
    .text                                    0x08000834   Section        0  iusefp.o(.text)
    .text                                    0x080008a4   Section        0  depilogue.o(.text)
    .text                                    0x08000966   Section        0  dfixul.o(.text)
    .text                                    0x08000998   Section       40  cdrcmple.o(.text)
    .text                                    0x080009c0   Section       36  init.o(.text)
    .text                                    0x080009e4   Section        0  __dczerorl2.o(.text)
    i.ADC_Cmd                                0x08000a40   Section        0  stm32f10x_adc.o(i.ADC_Cmd)
    i.ADC_DMACmd                             0x08000a54   Section        0  stm32f10x_adc.o(i.ADC_DMACmd)
    i.ADC_GetCalibrationStatus               0x08000a68   Section        0  stm32f10x_adc.o(i.ADC_GetCalibrationStatus)
    i.ADC_GetResetCalibrationStatus          0x08000a76   Section        0  stm32f10x_adc.o(i.ADC_GetResetCalibrationStatus)
    i.ADC_Init                               0x08000a84   Section        0  stm32f10x_adc.o(i.ADC_Init)
    i.ADC_RegularChannelConfig               0x08000acc   Section        0  stm32f10x_adc.o(i.ADC_RegularChannelConfig)
    i.ADC_ResetCalibration                   0x08000b40   Section        0  stm32f10x_adc.o(i.ADC_ResetCalibration)
    i.ADC_SoftwareStartConvCmd               0x08000b4a   Section        0  stm32f10x_adc.o(i.ADC_SoftwareStartConvCmd)
    i.ADC_StartCalibration                   0x08000b5e   Section        0  stm32f10x_adc.o(i.ADC_StartCalibration)
    i.AccOff_Deal                            0x08000b68   Section        0  obdii.o(i.AccOff_Deal)
    i.App_Accstate                           0x08000bfc   Section        0  obdii.o(i.App_Accstate)
    i.App_ClearDtc                           0x08000cf0   Section        0  obdii.o(i.App_ClearDtc)
    i.App_CmdClearDtc                        0x08000d24   Section        0  obdii.o(i.App_CmdClearDtc)
    i.App_CmdDtc                             0x08000d8c   Section        0  obdii.o(i.App_CmdDtc)
    i.App_ExeCmd                             0x08000f38   Section        0  obdii.o(i.App_ExeCmd)
    i.App_ReadDtc                            0x08000fd0   Section        0  obdii.o(i.App_ReadDtc)
    i.App_ReadVIN                            0x08001048   Section        0  obdii.o(i.App_ReadVIN)
    i.App_Task                               0x08001180   Section        0  protocol.o(i.App_Task)
    i.App_VssDeal                            0x080011d8   Section        0  obdii.o(i.App_VssDeal)
    i.BSP_GpioConfig                         0x08001268   Section        0  bsp.o(i.BSP_GpioConfig)
    i.BSP_InterruptConfig                    0x080013ec   Section        0  bsp.o(i.BSP_InterruptConfig)
    i.BSP_PowerAdcValue                      0x08001444   Section        0  bsp.o(i.BSP_PowerAdcValue)
    i.BSP_RESET_DOG                          0x08001450   Section        0  bsp.o(i.BSP_RESET_DOG)
    i.BSP_ScanAdcChannel                     0x08001454   Section        0  bsp.o(i.BSP_ScanAdcChannel)
    i.BSP_SysInit                            0x0800152c   Section        0  bsp.o(i.BSP_SysInit)
    i.BSP_SysReset                           0x08001580   Section        0  bsp.o(i.BSP_SysReset)
    i.BSP_SysTick                            0x080015a0   Section        0  bsp.o(i.BSP_SysTick)
    i.BSP_SysTick_Config                     0x080015f8   Section        0  bsp.o(i.BSP_SysTick_Config)
    i.BSP_UartInit                           0x0800163c   Section        0  bsp.o(i.BSP_UartInit)
    i.BSP_WDG_Init                           0x08001730   Section        0  bsp.o(i.BSP_WDG_Init)
    i.BspObdiiRead                           0x08001754   Section        0  bspobdii.o(i.BspObdiiRead)
    i.BspObdii_CanExtRead                    0x080017ac   Section        0  bspobdii.o(i.BspObdii_CanExtRead)
    i.BspObdii_CanStdRead                    0x0800198c   Section        0  bspobdii.o(i.BspObdii_CanStdRead)
    i.BspObdii_Iso9141Read                   0x08001b4c   Section        0  bspobdii.o(i.BspObdii_Iso9141Read)
    i.BspObdii_Kwp2000Read                   0x08001d24   Section        0  bspobdii.o(i.BspObdii_Kwp2000Read)
    i.BspObdii_PwmRead                       0x08001f0c   Section        0  bspobdii.o(i.BspObdii_PwmRead)
    i.BspObdii_VpwRead                       0x080020a8   Section        0  bspobdii.o(i.BspObdii_VpwRead)
    i.BspObdii_initial                       0x08002244   Section        0  bspobdii.o(i.BspObdii_initial)
    i.BusFault_Handler                       0x0800228c   Section        0  stm32f10x_it.o(i.BusFault_Handler)
    i.ByteToStr                              0x080022b4   Section        0  tools.o(i.ByteToStr)
    i.CAN1_RX1_IRQHandler                    0x080022fc   Section        0  driver_can.o(i.CAN1_RX1_IRQHandler)
    i.CAN_CancelTransmit                     0x08002340   Section        0  stm32f10x_can.o(i.CAN_CancelTransmit)
    i.CAN_ClearITPendingBit                  0x08002364   Section        0  stm32f10x_can.o(i.CAN_ClearITPendingBit)
    i.CAN_DeInit                             0x080023dc   Section        0  stm32f10x_can.o(i.CAN_DeInit)
    i.CAN_FIFORelease                        0x08002408   Section        0  stm32f10x_can.o(i.CAN_FIFORelease)
    i.CAN_FilterInit                         0x08002420   Section        0  stm32f10x_can.o(i.CAN_FilterInit)
    i.CAN_ITConfig                           0x080024f8   Section        0  stm32f10x_can.o(i.CAN_ITConfig)
    i.CAN_Init                               0x08002508   Section        0  stm32f10x_can.o(i.CAN_Init)
    i.CAN_Receive                            0x080025f0   Section        0  stm32f10x_can.o(i.CAN_Receive)
    i.CAN_SlaveStartBank                     0x0800266c   Section        0  stm32f10x_can.o(i.CAN_SlaveStartBank)
    i.CAN_Sleep                              0x08002698   Section        0  stm32f10x_can.o(i.CAN_Sleep)
    i.CAN_Transmit                           0x080026b6   Section        0  stm32f10x_can.o(i.CAN_Transmit)
    i.CalcTimeClear                          0x08002750   Section        0  obdii.o(i.CalcTimeClear)
    i.CanExt250K_EntryLink                   0x0800275c   Section        0  bspobdii.o(i.CanExt250K_EntryLink)
    i.CanExt500K_EntryLink                   0x0800288c   Section        0  bspobdii.o(i.CanExt500K_EntryLink)
    i.CanStd250K_EntryLink                   0x080029bc   Section        0  bspobdii.o(i.CanStd250K_EntryLink)
    i.CanStd500K_EntryLink                   0x08002b28   Section        0  bspobdii.o(i.CanStd500K_EntryLink)
    i.CheckSysTick                           0x08002c94   Section        0  bsp.o(i.CheckSysTick)
    i.CheckSysTicki                          0x08002ce0   Section        0  bsp.o(i.CheckSysTicki)
    i.DMA_Cmd                                0x08002d2c   Section        0  stm32f10x_dma.o(i.DMA_Cmd)
    i.DMA_DeInit                             0x08002d44   Section        0  stm32f10x_dma.o(i.DMA_DeInit)
    i.DMA_Init                               0x08002e30   Section        0  stm32f10x_dma.o(i.DMA_Init)
    i.DebugMon_Handler                       0x08002e6a   Section        0  stm32f10x_it.o(i.DebugMon_Handler)
    i.DetectRate                             0x08002e6c   Section        0  bspobdii.o(i.DetectRate)
    i.Driver_CAN_AddIdList16                 0x08002fa0   Section        0  driver_can.o(i.Driver_CAN_AddIdList16)
    i.Driver_CAN_AddIdList32                 0x08003110   Section        0  driver_can.o(i.Driver_CAN_AddIdList32)
    i.Driver_CAN_ClearRxBuffer               0x080031ec   Section        0  driver_can.o(i.Driver_CAN_ClearRxBuffer)
    i.Driver_CAN_ClearTxBuffer               0x08003214   Section        0  driver_can.o(i.Driver_CAN_ClearTxBuffer)
    i.Driver_CAN_FilterIdListAdd             0x08003244   Section        0  driver_can.o(i.Driver_CAN_FilterIdListAdd)
    i.Driver_CAN_FilterIdListClear           0x08003254   Section        0  driver_can.o(i.Driver_CAN_FilterIdListClear)
    i.Driver_CAN_Init                        0x08003290   Section        0  driver_can.o(i.Driver_CAN_Init)
    i.Driver_CAN_Receive                     0x08003370   Section        0  driver_can.o(i.Driver_CAN_Receive)
    i.Driver_CAN_Send                        0x080033e4   Section        0  driver_can.o(i.Driver_CAN_Send)
    i.Driver_CAN_SetBaud                     0x08003488   Section        0  driver_can.o(i.Driver_CAN_SetBaud)
    i.Driver_CAN_SetFilterRule               0x08003494   Section        0  driver_can.o(i.Driver_CAN_SetFilterRule)
    i.Driver_CAN_SetMode                     0x08003508   Section        0  driver_can.o(i.Driver_CAN_SetMode)
    i.Driver_CAN_Uninit                      0x08003514   Section        0  driver_can.o(i.Driver_CAN_Uninit)
    i.Driver_CAN_UpdateParameter             0x08003598   Section        0  driver_can.o(i.Driver_CAN_UpdateParameter)
    i.EXTI15_10_IRQHandler                   0x08003604   Section        0  stm32f10x_it.o(i.EXTI15_10_IRQHandler)
    i.Ecu_MilState                           0x08003608   Section        0  obdii.o(i.Ecu_MilState)
    i.Encryption                             0x08003690   Section        0  bsp.o(i.Encryption)
    i.FLASH_ErasePage                        0x080036d4   Section        0  stm32f10x_flash.o(i.FLASH_ErasePage)
    i.FLASH_GetBank1Status                   0x08003710   Section        0  stm32f10x_flash.o(i.FLASH_GetBank1Status)
    i.FLASH_Lock                             0x08003738   Section        0  stm32f10x_flash.o(i.FLASH_Lock)
    i.FLASH_ProgramWord                      0x08003748   Section        0  stm32f10x_flash.o(i.FLASH_ProgramWord)
    i.FLASH_Unlock                           0x08003790   Section        0  stm32f10x_flash.o(i.FLASH_Unlock)
    i.FLASH_WaitForLastOperation             0x080037a8   Section        0  stm32f10x_flash.o(i.FLASH_WaitForLastOperation)
    i.GETSUB                                 0x080037cc   Section        0  bspobdii.o(i.GETSUB)
    i.GPIO_Init                              0x080037dc   Section        0  stm32f10x_gpio.o(i.GPIO_Init)
    i.GPIO_PinRemapConfig                    0x08003880   Section        0  stm32f10x_gpio.o(i.GPIO_PinRemapConfig)
    i.GPIO_ReadInputDataBit                  0x080038d8   Section        0  stm32f10x_gpio.o(i.GPIO_ReadInputDataBit)
    i.GPIO_ResetBits                         0x080038e6   Section        0  stm32f10x_gpio.o(i.GPIO_ResetBits)
    i.GPIO_SetBits                           0x080038ea   Section        0  stm32f10x_gpio.o(i.GPIO_SetBits)
    i.GPIO_WriteBit                          0x080038ee   Section        0  stm32f10x_gpio.o(i.GPIO_WriteBit)
    i.Gas050fMoleDeno                        0x080038f8   Section        0  oilarith.o(i.Gas050fMoleDeno)
    i.Gas0fNo05                              0x08003a50   Section        0  oilarith.o(i.Gas0fNo05)
    i.GetPwmCrc                              0x08003acc   Section        0  bspobdii.o(i.GetPwmCrc)
    i.GetSysTick                             0x08003b00   Section        0  bsp.o(i.GetSysTick)
    i.HardFault_Handler                      0x08003b0c   Section        0  stm32f10x_it.o(i.HardFault_Handler)
    i.IWDG_Enable                            0x08003b34   Section        0  stm32f10x_iwdg.o(i.IWDG_Enable)
    i.IWDG_ReloadCounter                     0x08003b44   Section        0  stm32f10x_iwdg.o(i.IWDG_ReloadCounter)
    i.IWDG_SetPrescaler                      0x08003b54   Section        0  stm32f10x_iwdg.o(i.IWDG_SetPrescaler)
    i.IWDG_SetReload                         0x08003b60   Section        0  stm32f10x_iwdg.o(i.IWDG_SetReload)
    i.IWDG_WriteAccessCmd                    0x08003b6c   Section        0  stm32f10x_iwdg.o(i.IWDG_WriteAccessCmd)
    i.Iso9141_EntryLink                      0x08003b78   Section        0  bspobdii.o(i.Iso9141_EntryLink)
    i.IsoRecClear                            0x08003f54   Section        0  bspobdii.o(i.IsoRecClear)
    i.IsoUartInt                             0x08003f80   Section        0  bspobdii.o(i.IsoUartInt)
    i.Iso_DataRec                            0x08003fb4   Section        0  bspobdii.o(i.Iso_DataRec)
    i.Iso_Initial                            0x080040f4   Section        0  bspobdii.o(i.Iso_Initial)
    i.Iso_Port_init                          0x08004110   Section        0  bspobdii.o(i.Iso_Port_init)
    i.Kwp25bps_EntryLink                     0x08004164   Section        0  bspobdii.o(i.Kwp25bps_EntryLink)
    i.Kwp_DataRec                            0x08004344   Section        0  bspobdii.o(i.Kwp_DataRec)
    i.LinkBreakCheck                         0x08004424   Section        0  obdii.o(i.LinkBreakCheck)
    i.MemManage_Handler                      0x08004488   Section        0  stm32f10x_it.o(i.MemManage_Handler)
    i.MultiplyFlt                            0x080044b0   Section        0  oilarith.o(i.MultiplyFlt)
    i.MyPrintf                               0x080044d2   Section        0  tools.o(i.MyPrintf)
    i.NMI_Handler                            0x080044f8   Section        0  stm32f10x_it.o(i.NMI_Handler)
    i.NVIC_Init                              0x08004518   Section        0  misc.o(i.NVIC_Init)
    i.NVIC_PriorityGroupConfig               0x08004574   Section        0  misc.o(i.NVIC_PriorityGroupConfig)
    i.NVIC_SystemReset                       0x08004588   Section        0  stm32f10x_it.o(i.NVIC_SystemReset)
    NVIC_SystemReset                         0x08004589   Thumb Code    22  stm32f10x_it.o(i.NVIC_SystemReset)
    i.ObdDealInital                          0x080045a8   Section        0  protocol.o(i.ObdDealInital)
    i.ObdSendDataDeal                        0x080045d8   Section        0  protocol.o(i.ObdSendDataDeal)
    i.Obd_App_Initial                        0x0800473c   Section        0  obdii.o(i.Obd_App_Initial)
    i.Obd_GetPid_SupZiCheck                  0x080047b4   Section        0  obdii.o(i.Obd_GetPid_SupZiCheck)
    i.Obd_PidCycle_Deal                      0x080047f8   Section        0  obdii.o(i.Obd_PidCycle_Deal)
    i.Obd_ReadPidSup                         0x08004ab0   Section        0  obdii.o(i.Obd_ReadPidSup)
    i.Obd_ReadPid_Ready                      0x08004bf4   Section        0  obdii.o(i.Obd_ReadPid_Ready)
    i.Obd_ReadPid_Val                        0x08004df4   Section        0  obdii.o(i.Obd_ReadPid_Val)
    i.Obd_Read_ALLPid                        0x08004ef8   Section        0  obdii.o(i.Obd_Read_ALLPid)
    i.Obd_task                               0x08004ffc   Section        0  obdii.o(i.Obd_task)
    i.Oil_Arith_PID0b                        0x080055c4   Section        0  oilarith.o(i.Oil_Arith_PID0b)
    i.Oil_Arith_PID10                        0x080056f0   Section        0  oilarith.o(i.Oil_Arith_PID10)
    i.Oil_Arith_PID43                        0x08005748   Section        0  oilarith.o(i.Oil_Arith_PID43)
    i.Oil_Calc                               0x08005778   Section        0  obdii.o(i.Oil_Calc)
    i.PendSV_Handler                         0x08005898   Section        0  stm32f10x_it.o(i.PendSV_Handler)
    i.PowerCheck                             0x0800589c   Section        0  main.o(i.PowerCheck)
    i.Pro_Get_UartBuf_Data                   0x08005a48   Section        0  protocol.o(i.Pro_Get_UartBuf_Data)
    i.Pro_Initial                            0x08005a78   Section        0  protocol.o(i.Pro_Initial)
    i.Pro_Pack_Answer                        0x08005ac0   Section        0  protocol.o(i.Pro_Pack_Answer)
    i.Pro_Pack_Obd                           0x08005c38   Section        0  protocol.o(i.Pro_Pack_Obd)
    i.Pro_Parse                              0x08005ea4   Section        0  protocol.o(i.Pro_Parse)
    i.Pro_RecData                            0x08005f48   Section        0  protocol.o(i.Pro_RecData)
    i.Pro_Task                               0x08006040   Section        0  protocol.o(i.Pro_Task)
    i.Pro_Txh_UartInt                        0x0800604c   Section        0  protocol.o(i.Pro_Txh_UartInt)
    i.PwmDataIn                              0x08006090   Section        0  bspobdii.o(i.PwmDataIn)
    i.Pwm_Int                                0x08006158   Section        0  bspobdii.o(i.Pwm_Int)
    i.Pwm_Rec_Deal                           0x080063d4   Section        0  bspobdii.o(i.Pwm_Rec_Deal)
    i.Pwm_ReceiveOpen                        0x08006518   Section        0  bspobdii.o(i.Pwm_ReceiveOpen)
    i.RCC_ADCCLKConfig                       0x08006574   Section        0  stm32f10x_rcc.o(i.RCC_ADCCLKConfig)
    i.RCC_AHBPeriphClockCmd                  0x08006588   Section        0  stm32f10x_rcc.o(i.RCC_AHBPeriphClockCmd)
    i.RCC_APB1PeriphClockCmd                 0x080065a0   Section        0  stm32f10x_rcc.o(i.RCC_APB1PeriphClockCmd)
    i.RCC_APB1PeriphResetCmd                 0x080065b8   Section        0  stm32f10x_rcc.o(i.RCC_APB1PeriphResetCmd)
    i.RCC_APB2PeriphClockCmd                 0x080065d0   Section        0  stm32f10x_rcc.o(i.RCC_APB2PeriphClockCmd)
    i.RCC_GetClocksFreq                      0x080065e8   Section        0  stm32f10x_rcc.o(i.RCC_GetClocksFreq)
    i.ReadSavePara                           0x08006680   Section        0  bsp.o(i.ReadSavePara)
    i.Read_Trip_Data                         0x08006774   Section        0  obdii.o(i.Read_Trip_Data)
    i.Read_Trips_Data                        0x08006920   Section        0  obdii.o(i.Read_Trips_Data)
    i.SVC_Handler                            0x080069e8   Section        0  stm32f10x_it.o(i.SVC_Handler)
    i.Send25MsSignal                         0x080069ec   Section        0  bspobdii.o(i.Send25MsSignal)
    i.Send5Bps                               0x08006ab4   Section        0  bspobdii.o(i.Send5Bps)
    i.SendData2Usart3                        0x08006be4   Section        0  bspobdii.o(i.SendData2Usart3)
    i.SendData2Usart3AndReciveKey            0x08006c50   Section        0  bspobdii.o(i.SendData2Usart3AndReciveKey)
    i.SendPwmFrame                           0x08006cb4   Section        0  bspobdii.o(i.SendPwmFrame)
    i.SendPwmFrameTimeInit                   0x08006e4c   Section        0  bspobdii.o(i.SendPwmFrameTimeInit)
    i.SendVpwFrame                           0x08006ed0   Section        0  bspobdii.o(i.SendVpwFrame)
    i.SetSysClockToHSE                       0x0800704c   Section        0  system_stm32f10x.o(i.SetSysClockToHSE)
    SetSysClockToHSE                         0x0800704d   Thumb Code    98  system_stm32f10x.o(i.SetSysClockToHSE)
    i.SysTick_CLKSourceConfig                0x080070b8   Section        0  misc.o(i.SysTick_CLKSourceConfig)
    i.SysTick_Handler                        0x080070d0   Section        0  stm32f10x_it.o(i.SysTick_Handler)
    i.SystemInit                             0x080070d4   Section        0  system_stm32f10x.o(i.SystemInit)
    i.TIM2_IRQHandler                        0x08007124   Section        0  stm32f10x_it.o(i.TIM2_IRQHandler)
    i.TIM3_IRQHandler                        0x08007128   Section        0  stm32f10x_it.o(i.TIM3_IRQHandler)
    i.TIM_ARRPreloadConfig                   0x0800713c   Section        0  stm32f10x_tim.o(i.TIM_ARRPreloadConfig)
    i.TIM_Cmd                                0x08007150   Section        0  stm32f10x_tim.o(i.TIM_Cmd)
    i.TIM_GetCounter                         0x08007164   Section        0  stm32f10x_tim.o(i.TIM_GetCounter)
    i.TIM_ITConfig                           0x08007168   Section        0  stm32f10x_tim.o(i.TIM_ITConfig)
    i.TIM_SetCounter                         0x08007178   Section        0  stm32f10x_tim.o(i.TIM_SetCounter)
    i.TIM_TimeBaseInit                       0x0800717c   Section        0  stm32f10x_tim.o(i.TIM_TimeBaseInit)
    i.TimeDly                                0x08007218   Section        0  tools.o(i.TimeDly)
    i.Trace                                  0x0800723a   Section        0  tools.o(i.Trace)
    i.TraceHexStr                            0x08007250   Section        0  tools.o(i.TraceHexStr)
    i.Trip_Start_initial                     0x08007294   Section        0  obdii.o(i.Trip_Start_initial)
    i.Trip_end_up                            0x08007314   Section        0  obdii.o(i.Trip_end_up)
    i.USART1_IRQHandler                      0x08007574   Section        0  stm32f10x_it.o(i.USART1_IRQHandler)
    i.USART2_IRQHandler                      0x08007578   Section        0  stm32f10x_it.o(i.USART2_IRQHandler)
    i.USART3_IRQHandler                      0x0800757a   Section        0  stm32f10x_it.o(i.USART3_IRQHandler)
    i.USART_ClearITPendingBit                0x0800757e   Section        0  stm32f10x_usart.o(i.USART_ClearITPendingBit)
    i.USART_Cmd                              0x0800758a   Section        0  stm32f10x_usart.o(i.USART_Cmd)
    i.USART_GetFlagStatus                    0x0800759e   Section        0  stm32f10x_usart.o(i.USART_GetFlagStatus)
    i.USART_GetITStatus                      0x080075ac   Section        0  stm32f10x_usart.o(i.USART_GetITStatus)
    i.USART_ITConfig                         0x080075ea   Section        0  stm32f10x_usart.o(i.USART_ITConfig)
    i.USART_Init                             0x0800761c   Section        0  stm32f10x_usart.o(i.USART_Init)
    i.USART_SendData                         0x080076d0   Section        0  stm32f10x_usart.o(i.USART_SendData)
    i.USB_HP_CAN1_TX_IRQHandler              0x080076d8   Section        0  driver_can.o(i.USB_HP_CAN1_TX_IRQHandler)
    i.USB_LP_CAN1_RX0_IRQHandler             0x08007738   Section        0  driver_can.o(i.USB_LP_CAN1_RX0_IRQHandler)
    i.Uart_read                              0x08007790   Section        0  bsp.o(i.Uart_read)
    i.Uart_send                              0x080077cc   Section        0  bsp.o(i.Uart_send)
    i.UsageFault_Handler                     0x08007810   Section        0  stm32f10x_it.o(i.UsageFault_Handler)
    i.VpwDataIn                              0x08007838   Section        0  bspobdii.o(i.VpwDataIn)
    i.Vpw_Rec_Deal                           0x080078f0   Section        0  bspobdii.o(i.Vpw_Rec_Deal)
    i.Vpw_ReceiveOpen                        0x080079c0   Section        0  bspobdii.o(i.Vpw_ReceiveOpen)
    i.WriteSavePara                          0x08007a1c   Section        0  bsp.o(i.WriteSavePara)
    i.__0sprintf                             0x08007a8c   Section        0  printfa.o(i.__0sprintf)
    i.__0vsprintf                            0x08007ab4   Section        0  printfa.o(i.__0vsprintf)
    i.__scatterload_copy                     0x08007ad4   Section       14  handlers.o(i.__scatterload_copy)
    i.__scatterload_null                     0x08007ae2   Section        2  handlers.o(i.__scatterload_null)
    i.__scatterload_zeroinit                 0x08007ae4   Section       14  handlers.o(i.__scatterload_zeroinit)
    i._fp_digits                             0x08007af4   Section        0  printfa.o(i._fp_digits)
    _fp_digits                               0x08007af5   Thumb Code   318  printfa.o(i._fp_digits)
    i._printf_core                           0x08007c48   Section        0  printfa.o(i._printf_core)
    _printf_core                             0x08007c49   Thumb Code  1734  printfa.o(i._printf_core)
    i._printf_post_padding                   0x0800831c   Section        0  printfa.o(i._printf_post_padding)
    _printf_post_padding                     0x0800831d   Thumb Code    38  printfa.o(i._printf_post_padding)
    i._printf_pre_padding                    0x08008342   Section        0  printfa.o(i._printf_pre_padding)
    _printf_pre_padding                      0x08008343   Thumb Code    46  printfa.o(i._printf_pre_padding)
    i._sputc                                 0x08008370   Section        0  printfa.o(i._sputc)
    _sputc                                   0x08008371   Thumb Code    10  printfa.o(i._sputc)
    i.indtcbuf                               0x0800837c   Section        0  obdii.o(i.indtcbuf)
    i.main                                   0x080084c0   Section        0  main.o(i.main)
    i.trip_speed_check                       0x080085a8   Section        0  obdii.o(i.trip_speed_check)
    .constdata                               0x08008688   Section      312  obdii.o(.constdata)
    .constdata                               0x080087c0   Section      256  bspobdii.o(.constdata)
    .data                                    0x20000000   Section       20  stm32f10x_rcc.o(.data)
    ADCPrescTable                            0x20000000   Data           4  stm32f10x_rcc.o(.data)
    APBAHBPrescTable                         0x20000004   Data          16  stm32f10x_rcc.o(.data)
    .data                                    0x20000014   Section       20  system_stm32f10x.o(.data)
    .data                                    0x20000028   Section       28  bsp.o(.data)
    SysTickStep                              0x20000029   Data           1  bsp.o(.data)
    PowerAdcValue                            0x2000002a   Data           2  bsp.o(.data)
    jSysTickCnt                              0x2000002c   Data           4  bsp.o(.data)
    SysTickTime                              0x20000030   Data           4  bsp.o(.data)
    .data                                    0x20000044   Section       20  main.o(.data)
    Getfg                                    0x20000045   Data           1  main.o(.data)
    cnt                                      0x20000046   Data           1  main.o(.data)
    EgOffDly                                 0x20000047   Data           1  main.o(.data)
    EgOnDly                                  0x20000048   Data           1  main.o(.data)
    Cjiffies                                 0x20000054   Data           4  main.o(.data)
    .data                                    0x20000058   Section      115  protocol.o(.data)
    SendStep                                 0x20000058   Data           1  protocol.o(.data)
    cnt                                      0x20000059   Data           1  protocol.o(.data)
    flag                                     0x2000005a   Data           1  protocol.o(.data)
    AppStep                                  0x2000005b   Data           1  protocol.o(.data)
    Cnt                                      0x2000005c   Data           1  protocol.o(.data)
    SendTime                                 0x20000060   Data           4  protocol.o(.data)
    AppTime                                  0x20000064   Data           4  protocol.o(.data)
    ProTxh                                   0x20000068   Data           4  protocol.o(.data)
    .data                                    0x200000cc   Section       47  obdii.o(.data)
    Power_Scan_Fg                            0x200000cc   Data           1  obdii.o(.data)
    SysInitState                             0x200000cd   Data           1  obdii.o(.data)
    spcnt                                    0x200000d0   Data           1  obdii.o(.data)
    cnt                                      0x200000d1   Data           1  obdii.o(.data)
    Bcnt                                     0x200000d2   Data           1  obdii.o(.data)
    OilParaReadCnt                           0x200000d3   Data           1  obdii.o(.data)
    step                                     0x200000d4   Data           1  obdii.o(.data)
    step                                     0x200000d5   Data           1  obdii.o(.data)
    GsmPowerOnDealFlag                       0x200000d6   Data           1  obdii.o(.data)
    checkdata                                0x200000d8   Data           4  obdii.o(.data)
    jiffiesSavePara                          0x200000dc   Data           4  obdii.o(.data)
    B_f_rpm                                  0x200000e0   Data           4  obdii.o(.data)
    time                                     0x200000e4   Data           4  obdii.o(.data)
    SysInitjiffies                           0x200000e8   Data           4  obdii.o(.data)
    CtrlObd                                  0x200000ec   Data           5  obdii.o(.data)
    OilCalc                                  0x200000f1   Data           5  obdii.o(.data)
    MilRead                                  0x200000f6   Data           5  obdii.o(.data)
    .data                                    0x200000fc   Section       12  driver_can.o(.data)
    .data                                    0x20000108   Section       40  bspobdii.o(.data)
    reclen                                   0x20000108   Data           1  bspobdii.o(.data)
    data                                     0x20000109   Data           1  bspobdii.o(.data)
    databit                                  0x2000010a   Data           1  bspobdii.o(.data)
    reclen                                   0x2000010b   Data           1  bspobdii.o(.data)
    data                                     0x2000010c   Data           1  bspobdii.o(.data)
    databit                                  0x2000010d   Data           1  bspobdii.o(.data)
    PwmVpwTim                                0x2000010e   Data           1  bspobdii.o(.data)
    StartCCR                                 0x20000110   Data           2  bspobdii.o(.data)
    htime                                    0x20000112   Data           2  bspobdii.o(.data)
    Lowtime                                  0x20000114   Data           2  bspobdii.o(.data)
    endtime                                  0x20000116   Data           2  bspobdii.o(.data)
    time                                     0x20000118   Data           4  bspobdii.o(.data)
    DeteBps                                  0x2000011c   Data           4  bspobdii.o(.data)
    sPwm                                     0x20000124   Data           4  bspobdii.o(.data)
    sVpw                                     0x20000128   Data           4  bspobdii.o(.data)
    Iso                                      0x2000012c   Data           4  bspobdii.o(.data)
    .bss                                     0x20000130   Section      140  main.o(.bss)
    data                                     0x20000130   Data          56  main.o(.bss)
    .bss                                     0x200001bc   Section     5820  protocol.o(.bss)
    TxhProBuf                                0x200005bc   Data         512  protocol.o(.bss)
    TxhUartBuf                               0x200007bc   Data         260  protocol.o(.bss)
    Accoibuf                                 0x20001864   Data          20  protocol.o(.bss)
    .bss                                     0x20001878   Section     2105  obdii.o(.bss)
    VssMile                                  0x20001b91   Data           9  obdii.o(.bss)
    CmdRead                                  0x20001b9a   Data          10  obdii.o(.bss)
    .bss                                     0x200020b4   Section      800  driver_can.o(.bss)
    .bss                                     0x200023d4   Section     5932  bspobdii.o(.bss)
    recbuf                                   0x200023d4   Data          16  bspobdii.o(.bss)
    recbuf                                   0x200023e4   Data          16  bspobdii.o(.bss)
    ObdBuf                                   0x200023f4   Data         512  bspobdii.o(.bss)
    ObdBuf2                                  0x200025f4   Data         512  bspobdii.o(.bss)
    recp                                     0x200027f4   Data        4102  bspobdii.o(.bss)
    sendp                                    0x200037fa   Data         516  bspobdii.o(.bss)
    IsoUartbuf                               0x200039fe   Data         258  bspobdii.o(.bss)
    STACK                                    0x20003b00   Section     4096  startup_stm32f10x_md.o(STACK)

    Global Symbols

    Symbol Name                              Value     Ov Type        Size  Object(Section)

    BuildAttributes$$THM_ISAv4$P$D$K$B$S$PE$A:L22UL41UL21$X:L11$S22US41US21$IEEE1$IW$USESV6$~STKCKD$USESV7$~SHL$OTIME$ROPI$EBA8$MICROLIB$REQ8$PRES8$EABIv2 0x00000000   Number         0  anon$$obj.o ABSOLUTE
    __ARM_use_no_argv                        0x00000000   Number         0  main.o ABSOLUTE
    _printf_a                                0x00000000   Number         0  stubs.o ABSOLUTE
    _printf_c                                0x00000000   Number         0  stubs.o ABSOLUTE
    _printf_charcount                        0x00000000   Number         0  stubs.o ABSOLUTE
    _printf_d                                0x00000000   Number         0  stubs.o ABSOLUTE
    _printf_e                                0x00000000   Number         0  stubs.o ABSOLUTE
    _printf_f                                0x00000000   Number         0  stubs.o ABSOLUTE
    _printf_flags                            0x00000000   Number         0  stubs.o ABSOLUTE
    _printf_fp_dec                           0x00000000   Number         0  stubs.o ABSOLUTE
    _printf_fp_hex                           0x00000000   Number         0  stubs.o ABSOLUTE
    _printf_g                                0x00000000   Number         0  stubs.o ABSOLUTE
    _printf_i                                0x00000000   Number         0  stubs.o ABSOLUTE
    _printf_int_dec                          0x00000000   Number         0  stubs.o ABSOLUTE
    _printf_l                                0x00000000   Number         0  stubs.o ABSOLUTE
    _printf_lc                               0x00000000   Number         0  stubs.o ABSOLUTE
    _printf_ll                               0x00000000   Number         0  stubs.o ABSOLUTE
    _printf_lld                              0x00000000   Number         0  stubs.o ABSOLUTE
    _printf_lli                              0x00000000   Number         0  stubs.o ABSOLUTE
    _printf_llo                              0x00000000   Number         0  stubs.o ABSOLUTE
    _printf_llu                              0x00000000   Number         0  stubs.o ABSOLUTE
    _printf_llx                              0x00000000   Number         0  stubs.o ABSOLUTE
    _printf_longlong_dec                     0x00000000   Number         0  stubs.o ABSOLUTE
    _printf_longlong_hex                     0x00000000   Number         0  stubs.o ABSOLUTE
    _printf_longlong_oct                     0x00000000   Number         0  stubs.o ABSOLUTE
    _printf_ls                               0x00000000   Number         0  stubs.o ABSOLUTE
    _printf_mbtowc                           0x00000000   Number         0  stubs.o ABSOLUTE
    _printf_n                                0x00000000   Number         0  stubs.o ABSOLUTE
    _printf_o                                0x00000000   Number         0  stubs.o ABSOLUTE
    _printf_p                                0x00000000   Number         0  stubs.o ABSOLUTE
    _printf_percent                          0x00000000   Number         0  stubs.o ABSOLUTE
    _printf_pre_padding                      0x00000000   Number         0  stubs.o ABSOLUTE
    _printf_return_value                     0x00000000   Number         0  stubs.o ABSOLUTE
    _printf_s                                0x00000000   Number         0  stubs.o ABSOLUTE
    _printf_sizespec                         0x00000000   Number         0  stubs.o ABSOLUTE
    _printf_str                              0x00000000   Number         0  stubs.o ABSOLUTE
    _printf_truncate_signed                  0x00000000   Number         0  stubs.o ABSOLUTE
    _printf_truncate_unsigned                0x00000000   Number         0  stubs.o ABSOLUTE
    _printf_u                                0x00000000   Number         0  stubs.o ABSOLUTE
    _printf_wc                               0x00000000   Number         0  stubs.o ABSOLUTE
    _printf_wctomb                           0x00000000   Number         0  stubs.o ABSOLUTE
    _printf_widthprec                        0x00000000   Number         0  stubs.o ABSOLUTE
    _printf_x                                0x00000000   Number         0  stubs.o ABSOLUTE
    __Vectors_Size                           0x000000ec   Number         0  startup_stm32f10x_md.o ABSOLUTE
    __Vectors                                0x08000000   Data           4  startup_stm32f10x_md.o(RESET)
    __Vectors_End                            0x080000ec   Data           0  startup_stm32f10x_md.o(RESET)
    __main                                   0x080000ed   Thumb Code     0  entry.o(.ARM.Collect$$$$00000000)
    _main_stk                                0x080000ed   Thumb Code     0  entry2.o(.ARM.Collect$$$$00000001)
    _main_scatterload                        0x080000f1   Thumb Code     0  entry5.o(.ARM.Collect$$$$00000004)
    __main_after_scatterload                 0x080000f5   Thumb Code     0  entry5.o(.ARM.Collect$$$$00000004)
    _main_init                               0x080000f5   Thumb Code     0  entry7.o(.ARM.Collect$$$$00000007)
    Reset_Handler                            0x08000101   Thumb Code     8  startup_stm32f10x_md.o(.text)
    ADC1_2_IRQHandler                        0x0800011b   Thumb Code     0  startup_stm32f10x_md.o(.text)
    CAN1_SCE_IRQHandler                      0x0800011b   Thumb Code     0  startup_stm32f10x_md.o(.text)
    DMA1_Channel1_IRQHandler                 0x0800011b   Thumb Code     0  startup_stm32f10x_md.o(.text)
    DMA1_Channel2_IRQHandler                 0x0800011b   Thumb Code     0  startup_stm32f10x_md.o(.text)
    DMA1_Channel3_IRQHandler                 0x0800011b   Thumb Code     0  startup_stm32f10x_md.o(.text)
    DMA1_Channel4_IRQHandler                 0x0800011b   Thumb Code     0  startup_stm32f10x_md.o(.text)
    DMA1_Channel5_IRQHandler                 0x0800011b   Thumb Code     0  startup_stm32f10x_md.o(.text)
    DMA1_Channel6_IRQHandler                 0x0800011b   Thumb Code     0  startup_stm32f10x_md.o(.text)
    DMA1_Channel7_IRQHandler                 0x0800011b   Thumb Code     0  startup_stm32f10x_md.o(.text)
    EXTI0_IRQHandler                         0x0800011b   Thumb Code     0  startup_stm32f10x_md.o(.text)
    EXTI1_IRQHandler                         0x0800011b   Thumb Code     0  startup_stm32f10x_md.o(.text)
    EXTI2_IRQHandler                         0x0800011b   Thumb Code     0  startup_stm32f10x_md.o(.text)
    EXTI3_IRQHandler                         0x0800011b   Thumb Code     0  startup_stm32f10x_md.o(.text)
    EXTI4_IRQHandler                         0x0800011b   Thumb Code     0  startup_stm32f10x_md.o(.text)
    EXTI9_5_IRQHandler                       0x0800011b   Thumb Code     0  startup_stm32f10x_md.o(.text)
    FLASH_IRQHandler                         0x0800011b   Thumb Code     0  startup_stm32f10x_md.o(.text)
    I2C1_ER_IRQHandler                       0x0800011b   Thumb Code     0  startup_stm32f10x_md.o(.text)
    I2C1_EV_IRQHandler                       0x0800011b   Thumb Code     0  startup_stm32f10x_md.o(.text)
    I2C2_ER_IRQHandler                       0x0800011b   Thumb Code     0  startup_stm32f10x_md.o(.text)
    I2C2_EV_IRQHandler                       0x0800011b   Thumb Code     0  startup_stm32f10x_md.o(.text)
    PVD_IRQHandler                           0x0800011b   Thumb Code     0  startup_stm32f10x_md.o(.text)
    RCC_IRQHandler                           0x0800011b   Thumb Code     0  startup_stm32f10x_md.o(.text)
    RTCAlarm_IRQHandler                      0x0800011b   Thumb Code     0  startup_stm32f10x_md.o(.text)
    RTC_IRQHandler                           0x0800011b   Thumb Code     0  startup_stm32f10x_md.o(.text)
    SPI1_IRQHandler                          0x0800011b   Thumb Code     0  startup_stm32f10x_md.o(.text)
    SPI2_IRQHandler                          0x0800011b   Thumb Code     0  startup_stm32f10x_md.o(.text)
    TAMPER_IRQHandler                        0x0800011b   Thumb Code     0  startup_stm32f10x_md.o(.text)
    TIM1_BRK_IRQHandler                      0x0800011b   Thumb Code     0  startup_stm32f10x_md.o(.text)
    TIM1_CC_IRQHandler                       0x0800011b   Thumb Code     0  startup_stm32f10x_md.o(.text)
    TIM1_TRG_COM_IRQHandler                  0x0800011b   Thumb Code     0  startup_stm32f10x_md.o(.text)
    TIM1_UP_IRQHandler                       0x0800011b   Thumb Code     0  startup_stm32f10x_md.o(.text)
    TIM4_IRQHandler                          0x0800011b   Thumb Code     0  startup_stm32f10x_md.o(.text)
    USBWakeUp_IRQHandler                     0x0800011b   Thumb Code     0  startup_stm32f10x_md.o(.text)
    WWDG_IRQHandler                          0x0800011b   Thumb Code     0  startup_stm32f10x_md.o(.text)
    __aeabi_memcpy                           0x08000125   Thumb Code    36  memcpya.o(.text)
    __aeabi_memcpy4                          0x08000125   Thumb Code     0  memcpya.o(.text)
    __aeabi_memcpy8                          0x08000125   Thumb Code     0  memcpya.o(.text)
    __aeabi_memset                           0x08000149   Thumb Code    14  memseta.o(.text)
    __aeabi_memset4                          0x08000149   Thumb Code     0  memseta.o(.text)
    __aeabi_memset8                          0x08000149   Thumb Code     0  memseta.o(.text)
    __aeabi_memclr                           0x08000157   Thumb Code     4  memseta.o(.text)
    __aeabi_memclr4                          0x08000157   Thumb Code     0  memseta.o(.text)
    __aeabi_memclr8                          0x08000157   Thumb Code     0  memseta.o(.text)
    _memset$wrapper                          0x0800015b   Thumb Code    20  memseta.o(.text)
    strlen                                   0x0800016f   Thumb Code    16  strlen.o(.text)
    __aeabi_fadd                             0x0800017f   Thumb Code   164  fadd.o(.text)
    __aeabi_fsub                             0x08000223   Thumb Code     6  fadd.o(.text)
    __aeabi_frsub                            0x08000229   Thumb Code     6  fadd.o(.text)
    __aeabi_fmul                             0x0800022f   Thumb Code   108  fmul.o(.text)
    __aeabi_fdiv                             0x0800029b   Thumb Code   128  fdiv.o(.text)
    __ARM_scalbnf                            0x0800031b   Thumb Code    24  fscalb.o(.text)
    scalbnf                                  0x0800031b   Thumb Code     0  fscalb.o(.text)
    __aeabi_dadd                             0x08000333   Thumb Code   318  dadd.o(.text)
    __aeabi_dsub                             0x08000471   Thumb Code     6  dadd.o(.text)
    __aeabi_drsub                            0x08000477   Thumb Code     6  dadd.o(.text)
    __aeabi_dmul                             0x0800047d   Thumb Code   226  dmul.o(.text)
    __aeabi_ddiv                             0x0800055f   Thumb Code   222  ddiv.o(.text)
    __aeabi_i2f                              0x0800063d   Thumb Code    18  fflti.o(.text)
    __aeabi_ui2f                             0x0800064f   Thumb Code    10  ffltui.o(.text)
    __aeabi_ui2d                             0x08000659   Thumb Code    26  dfltui.o(.text)
    __aeabi_f2uiz                            0x08000673   Thumb Code    40  ffixui.o(.text)
    __aeabi_d2uiz                            0x0800069b   Thumb Code    46  dfixui.o(.text)
    __aeabi_f2d                              0x080006c9   Thumb Code    44  f2d.o(.text)
    __aeabi_d2f                              0x080006f5   Thumb Code    56  d2f.o(.text)
    __aeabi_cfcmpeq                          0x0800072d   Thumb Code     0  cfcmple.o(.text)
    __aeabi_cfcmple                          0x0800072d   Thumb Code    20  cfcmple.o(.text)
    __aeabi_uidiv                            0x08000741   Thumb Code     0  uidiv.o(.text)
    __aeabi_uidivmod                         0x08000741   Thumb Code    44  uidiv.o(.text)
    __aeabi_uldivmod                         0x0800076d   Thumb Code   102  uldiv.o(.text)
    __aeabi_llsl                             0x080007d3   Thumb Code    30  llshl.o(.text)
    _ll_shift_l                              0x080007d3   Thumb Code     0  llshl.o(.text)
    __aeabi_llsr                             0x080007f1   Thumb Code    32  llushr.o(.text)
    _ll_ushift_r                             0x080007f1   Thumb Code     0  llushr.o(.text)
    __aeabi_lasr                             0x08000811   Thumb Code    36  llsshr.o(.text)
    _ll_sshift_r                             0x08000811   Thumb Code     0  llsshr.o(.text)
    __I$use$fp                               0x08000835   Thumb Code     0  iusefp.o(.text)
    _float_round                             0x08000835   Thumb Code    18  fepilogue.o(.text)
    _float_epilogue                          0x08000847   Thumb Code    94  fepilogue.o(.text)
    _double_round                            0x080008a5   Thumb Code    26  depilogue.o(.text)
    _double_epilogue                         0x080008bf   Thumb Code   168  depilogue.o(.text)
    __aeabi_d2ulz                            0x08000967   Thumb Code    48  dfixul.o(.text)
    __aeabi_cdrcmple                         0x08000999   Thumb Code    38  cdrcmple.o(.text)
    __scatterload                            0x080009c1   Thumb Code    28  init.o(.text)
    __scatterload_rt2                        0x080009c1   Thumb Code     0  init.o(.text)
    __decompress                             0x080009e5   Thumb Code     0  __dczerorl2.o(.text)
    __decompress1                            0x080009e5   Thumb Code    92  __dczerorl2.o(.text)
    ADC_Cmd                                  0x08000a41   Thumb Code    20  stm32f10x_adc.o(i.ADC_Cmd)
    ADC_DMACmd                               0x08000a55   Thumb Code    20  stm32f10x_adc.o(i.ADC_DMACmd)
    ADC_GetCalibrationStatus                 0x08000a69   Thumb Code    14  stm32f10x_adc.o(i.ADC_GetCalibrationStatus)
    ADC_GetResetCalibrationStatus            0x08000a77   Thumb Code    14  stm32f10x_adc.o(i.ADC_GetResetCalibrationStatus)
    ADC_Init                                 0x08000a85   Thumb Code    62  stm32f10x_adc.o(i.ADC_Init)
    ADC_RegularChannelConfig                 0x08000acd   Thumb Code   116  stm32f10x_adc.o(i.ADC_RegularChannelConfig)
    ADC_ResetCalibration                     0x08000b41   Thumb Code    10  stm32f10x_adc.o(i.ADC_ResetCalibration)
    ADC_SoftwareStartConvCmd                 0x08000b4b   Thumb Code    20  stm32f10x_adc.o(i.ADC_SoftwareStartConvCmd)
    ADC_StartCalibration                     0x08000b5f   Thumb Code    10  stm32f10x_adc.o(i.ADC_StartCalibration)
    AccOff_Deal                              0x08000b69   Thumb Code   102  obdii.o(i.AccOff_Deal)
    App_Accstate                             0x08000bfd   Thumb Code   170  obdii.o(i.App_Accstate)
    App_ClearDtc                             0x08000cf1   Thumb Code    52  obdii.o(i.App_ClearDtc)
    App_CmdClearDtc                          0x08000d25   Thumb Code    96  obdii.o(i.App_CmdClearDtc)
    App_CmdDtc                               0x08000d8d   Thumb Code   416  obdii.o(i.App_CmdDtc)
    App_ExeCmd                               0x08000f39   Thumb Code   144  obdii.o(i.App_ExeCmd)
    App_ReadDtc                              0x08000fd1   Thumb Code   120  obdii.o(i.App_ReadDtc)
    App_ReadVIN                              0x08001049   Thumb Code   288  obdii.o(i.App_ReadVIN)
    App_Task                                 0x08001181   Thumb Code    78  protocol.o(i.App_Task)
    App_VssDeal                              0x080011d9   Thumb Code   134  obdii.o(i.App_VssDeal)
    BSP_GpioConfig                           0x08001269   Thumb Code   370  bsp.o(i.BSP_GpioConfig)
    BSP_InterruptConfig                      0x080013ed   Thumb Code    88  bsp.o(i.BSP_InterruptConfig)
    BSP_PowerAdcValue                        0x08001445   Thumb Code     6  bsp.o(i.BSP_PowerAdcValue)
    BSP_RESET_DOG                            0x08001451   Thumb Code     4  bsp.o(i.BSP_RESET_DOG)
    BSP_ScanAdcChannel                       0x08001455   Thumb Code   204  bsp.o(i.BSP_ScanAdcChannel)
    BSP_SysInit                              0x0800152d   Thumb Code    80  bsp.o(i.BSP_SysInit)
    BSP_SysReset                             0x08001581   Thumb Code    22  bsp.o(i.BSP_SysReset)
    BSP_SysTick                              0x080015a1   Thumb Code    48  bsp.o(i.BSP_SysTick)
    BSP_SysTick_Config                       0x080015f9   Thumb Code    58  bsp.o(i.BSP_SysTick_Config)
    BSP_UartInit                             0x0800163d   Thumb Code   222  bsp.o(i.BSP_UartInit)
    BSP_WDG_Init                             0x08001731   Thumb Code    36  bsp.o(i.BSP_WDG_Init)
    BspObdiiRead                             0x08001755   Thumb Code    88  bspobdii.o(i.BspObdiiRead)
    BspObdii_CanExtRead                      0x080017ad   Thumb Code   440  bspobdii.o(i.BspObdii_CanExtRead)
    BspObdii_CanStdRead                      0x0800198d   Thumb Code   424  bspobdii.o(i.BspObdii_CanStdRead)
    BspObdii_Iso9141Read                     0x08001b4d   Thumb Code   454  bspobdii.o(i.BspObdii_Iso9141Read)
    BspObdii_Kwp2000Read                     0x08001d25   Thumb Code   470  bspobdii.o(i.BspObdii_Kwp2000Read)
    BspObdii_PwmRead                         0x08001f0d   Thumb Code   396  bspobdii.o(i.BspObdii_PwmRead)
    BspObdii_VpwRead                         0x080020a9   Thumb Code   396  bspobdii.o(i.BspObdii_VpwRead)
    BspObdii_initial                         0x08002245   Thumb Code    54  bspobdii.o(i.BspObdii_initial)
    BusFault_Handler                         0x0800228d   Thumb Code    14  stm32f10x_it.o(i.BusFault_Handler)
    ByteToStr                                0x080022b5   Thumb Code    52  tools.o(i.ByteToStr)
    CAN1_RX1_IRQHandler                      0x080022fd   Thumb Code    54  driver_can.o(i.CAN1_RX1_IRQHandler)
    CAN_CancelTransmit                       0x08002341   Thumb Code    36  stm32f10x_can.o(i.CAN_CancelTransmit)
    CAN_ClearITPendingBit                    0x08002365   Thumb Code   116  stm32f10x_can.o(i.CAN_ClearITPendingBit)
    CAN_DeInit                               0x080023dd   Thumb Code    38  stm32f10x_can.o(i.CAN_DeInit)
    CAN_FIFORelease                          0x08002409   Thumb Code    22  stm32f10x_can.o(i.CAN_FIFORelease)
    CAN_FilterInit                           0x08002421   Thumb Code   210  stm32f10x_can.o(i.CAN_FilterInit)
    CAN_ITConfig                             0x080024f9   Thumb Code    16  stm32f10x_can.o(i.CAN_ITConfig)
    CAN_Init                                 0x08002509   Thumb Code   232  stm32f10x_can.o(i.CAN_Init)
    CAN_Receive                              0x080025f1   Thumb Code   124  stm32f10x_can.o(i.CAN_Receive)
    CAN_SlaveStartBank                       0x0800266d   Thumb Code    40  stm32f10x_can.o(i.CAN_SlaveStartBank)
    CAN_Sleep                                0x08002699   Thumb Code    30  stm32f10x_can.o(i.CAN_Sleep)
    CAN_Transmit                             0x080026b7   Thumb Code   154  stm32f10x_can.o(i.CAN_Transmit)
    CalcTimeClear                            0x08002751   Thumb Code     6  obdii.o(i.CalcTimeClear)
    CanExt250K_EntryLink                     0x0800275d   Thumb Code   234  bspobdii.o(i.CanExt250K_EntryLink)
    CanExt500K_EntryLink                     0x0800288d   Thumb Code   234  bspobdii.o(i.CanExt500K_EntryLink)
    CanStd250K_EntryLink                     0x080029bd   Thumb Code   312  bspobdii.o(i.CanStd250K_EntryLink)
    CanStd500K_EntryLink                     0x08002b29   Thumb Code   312  bspobdii.o(i.CanStd500K_EntryLink)
    CheckSysTick                             0x08002c95   Thumb Code    46  bsp.o(i.CheckSysTick)
    CheckSysTicki                            0x08002ce1   Thumb Code    44  bsp.o(i.CheckSysTicki)
    DMA_Cmd                                  0x08002d2d   Thumb Code    22  stm32f10x_dma.o(i.DMA_Cmd)
    DMA_DeInit                               0x08002d45   Thumb Code   228  stm32f10x_dma.o(i.DMA_DeInit)
    DMA_Init                                 0x08002e31   Thumb Code    58  stm32f10x_dma.o(i.DMA_Init)
    DebugMon_Handler                         0x08002e6b   Thumb Code     2  stm32f10x_it.o(i.DebugMon_Handler)
    DetectRate                               0x08002e6d   Thumb Code   272  bspobdii.o(i.DetectRate)
    Driver_CAN_AddIdList16                   0x08002fa1   Thumb Code   364  driver_can.o(i.Driver_CAN_AddIdList16)
    Driver_CAN_AddIdList32                   0x08003111   Thumb Code   214  driver_can.o(i.Driver_CAN_AddIdList32)
    Driver_CAN_ClearRxBuffer                 0x080031ed   Thumb Code    32  driver_can.o(i.Driver_CAN_ClearRxBuffer)
    Driver_CAN_ClearTxBuffer                 0x08003215   Thumb Code    38  driver_can.o(i.Driver_CAN_ClearTxBuffer)
    Driver_CAN_FilterIdListAdd               0x08003245   Thumb Code    16  driver_can.o(i.Driver_CAN_FilterIdListAdd)
    Driver_CAN_FilterIdListClear             0x08003255   Thumb Code    58  driver_can.o(i.Driver_CAN_FilterIdListClear)
    Driver_CAN_Init                          0x08003291   Thumb Code   210  driver_can.o(i.Driver_CAN_Init)
    Driver_CAN_Receive                       0x08003371   Thumb Code   108  driver_can.o(i.Driver_CAN_Receive)
    Driver_CAN_Send                          0x080033e5   Thumb Code   152  driver_can.o(i.Driver_CAN_Send)
    Driver_CAN_SetBaud                       0x08003489   Thumb Code     8  driver_can.o(i.Driver_CAN_SetBaud)
    Driver_CAN_SetFilterRule                 0x08003495   Thumb Code   112  driver_can.o(i.Driver_CAN_SetFilterRule)
    Driver_CAN_SetMode                       0x08003509   Thumb Code     8  driver_can.o(i.Driver_CAN_SetMode)
    Driver_CAN_Uninit                        0x08003515   Thumb Code   128  driver_can.o(i.Driver_CAN_Uninit)
    Driver_CAN_UpdateParameter               0x08003599   Thumb Code    98  driver_can.o(i.Driver_CAN_UpdateParameter)
    EXTI15_10_IRQHandler                     0x08003605   Thumb Code     2  stm32f10x_it.o(i.EXTI15_10_IRQHandler)
    Ecu_MilState                             0x08003609   Thumb Code    96  obdii.o(i.Ecu_MilState)
    Encryption                               0x08003691   Thumb Code    60  bsp.o(i.Encryption)
    FLASH_ErasePage                          0x080036d5   Thumb Code    56  stm32f10x_flash.o(i.FLASH_ErasePage)
    FLASH_GetBank1Status                     0x08003711   Thumb Code    34  stm32f10x_flash.o(i.FLASH_GetBank1Status)
    FLASH_Lock                               0x08003739   Thumb Code    12  stm32f10x_flash.o(i.FLASH_Lock)
    FLASH_ProgramWord                        0x08003749   Thumb Code    68  stm32f10x_flash.o(i.FLASH_ProgramWord)
    FLASH_Unlock                             0x08003791   Thumb Code    12  stm32f10x_flash.o(i.FLASH_Unlock)
    FLASH_WaitForLastOperation               0x080037a9   Thumb Code    36  stm32f10x_flash.o(i.FLASH_WaitForLastOperation)
    GETSUB                                   0x080037cd   Thumb Code    16  bspobdii.o(i.GETSUB)
    GPIO_Init                                0x080037dd   Thumb Code   164  stm32f10x_gpio.o(i.GPIO_Init)
    GPIO_PinRemapConfig                      0x08003881   Thumb Code    82  stm32f10x_gpio.o(i.GPIO_PinRemapConfig)
    GPIO_ReadInputDataBit                    0x080038d9   Thumb Code    14  stm32f10x_gpio.o(i.GPIO_ReadInputDataBit)
    GPIO_ResetBits                           0x080038e7   Thumb Code     4  stm32f10x_gpio.o(i.GPIO_ResetBits)
    GPIO_SetBits                             0x080038eb   Thumb Code     4  stm32f10x_gpio.o(i.GPIO_SetBits)
    GPIO_WriteBit                            0x080038ef   Thumb Code    10  stm32f10x_gpio.o(i.GPIO_WriteBit)
    Gas050fMoleDeno                          0x080038f9   Thumb Code   266  oilarith.o(i.Gas050fMoleDeno)
    Gas0fNo05                                0x08003a51   Thumb Code    94  oilarith.o(i.Gas0fNo05)
    GetPwmCrc                                0x08003acd   Thumb Code    46  bspobdii.o(i.GetPwmCrc)
    GetSysTick                               0x08003b01   Thumb Code     8  bsp.o(i.GetSysTick)
    HardFault_Handler                        0x08003b0d   Thumb Code    14  stm32f10x_it.o(i.HardFault_Handler)
    IWDG_Enable                              0x08003b35   Thumb Code    10  stm32f10x_iwdg.o(i.IWDG_Enable)
    IWDG_ReloadCounter                       0x08003b45   Thumb Code    10  stm32f10x_iwdg.o(i.IWDG_ReloadCounter)
    IWDG_SetPrescaler                        0x08003b55   Thumb Code     6  stm32f10x_iwdg.o(i.IWDG_SetPrescaler)
    IWDG_SetReload                           0x08003b61   Thumb Code     6  stm32f10x_iwdg.o(i.IWDG_SetReload)
    IWDG_WriteAccessCmd                      0x08003b6d   Thumb Code     6  stm32f10x_iwdg.o(i.IWDG_WriteAccessCmd)
    Iso9141_EntryLink                        0x08003b79   Thumb Code   836  bspobdii.o(i.Iso9141_EntryLink)
    IsoRecClear                              0x08003f55   Thumb Code    38  bspobdii.o(i.IsoRecClear)
    IsoUartInt                               0x08003f81   Thumb Code    46  bspobdii.o(i.IsoUartInt)
    Iso_DataRec                              0x08003fb5   Thumb Code   310  bspobdii.o(i.Iso_DataRec)
    Iso_Initial                              0x080040f5   Thumb Code    20  bspobdii.o(i.Iso_Initial)
    Iso_Port_init                            0x08004111   Thumb Code    72  bspobdii.o(i.Iso_Port_init)
    Kwp25bps_EntryLink                       0x08004165   Thumb Code   406  bspobdii.o(i.Kwp25bps_EntryLink)
    Kwp_DataRec                              0x08004345   Thumb Code   216  bspobdii.o(i.Kwp_DataRec)
    LinkBreakCheck                           0x08004425   Thumb Code    62  obdii.o(i.LinkBreakCheck)
    MemManage_Handler                        0x08004489   Thumb Code    14  stm32f10x_it.o(i.MemManage_Handler)
    MultiplyFlt                              0x080044b1   Thumb Code    34  oilarith.o(i.MultiplyFlt)
    MyPrintf                                 0x080044d3   Thumb Code    38  tools.o(i.MyPrintf)
    NMI_Handler                              0x080044f9   Thumb Code    14  stm32f10x_it.o(i.NMI_Handler)
    NVIC_Init                                0x08004519   Thumb Code    92  misc.o(i.NVIC_Init)
    NVIC_PriorityGroupConfig                 0x08004575   Thumb Code    10  misc.o(i.NVIC_PriorityGroupConfig)
    ObdDealInital                            0x080045a9   Thumb Code    36  protocol.o(i.ObdDealInital)
    ObdSendDataDeal                          0x080045d9   Thumb Code   312  protocol.o(i.ObdSendDataDeal)
    Obd_App_Initial                          0x0800473d   Thumb Code   104  obdii.o(i.Obd_App_Initial)
    Obd_GetPid_SupZiCheck                    0x080047b5   Thumb Code    64  obdii.o(i.Obd_GetPid_SupZiCheck)
    Obd_PidCycle_Deal                        0x080047f9   Thumb Code   594  obdii.o(i.Obd_PidCycle_Deal)
    Obd_ReadPidSup                           0x08004ab1   Thumb Code   220  obdii.o(i.Obd_ReadPidSup)
    Obd_ReadPid_Ready                        0x08004bf5   Thumb Code   388  obdii.o(i.Obd_ReadPid_Ready)
    Obd_ReadPid_Val                          0x08004df5   Thumb Code   228  obdii.o(i.Obd_ReadPid_Val)
    Obd_Read_ALLPid                          0x08004ef9   Thumb Code   250  obdii.o(i.Obd_Read_ALLPid)
    Obd_task                                 0x08004ffd   Thumb Code  1424  obdii.o(i.Obd_task)
    Oil_Arith_PID0b                          0x080055c5   Thumb Code   248  oilarith.o(i.Oil_Arith_PID0b)
    Oil_Arith_PID10                          0x080056f1   Thumb Code    68  oilarith.o(i.Oil_Arith_PID10)
    Oil_Arith_PID43                          0x08005749   Thumb Code    38  oilarith.o(i.Oil_Arith_PID43)
    Oil_Calc                                 0x08005779   Thumb Code   268  obdii.o(i.Oil_Calc)
    PendSV_Handler                           0x08005899   Thumb Code     2  stm32f10x_it.o(i.PendSV_Handler)
    PowerCheck                               0x0800589d   Thumb Code   316  main.o(i.PowerCheck)
    Pro_Get_UartBuf_Data                     0x08005a49   Thumb Code    44  protocol.o(i.Pro_Get_UartBuf_Data)
    Pro_Initial                              0x08005a79   Thumb Code    56  protocol.o(i.Pro_Initial)
    Pro_Pack_Answer                          0x08005ac1   Thumb Code   350  protocol.o(i.Pro_Pack_Answer)
    Pro_Pack_Obd                             0x08005c39   Thumb Code   546  protocol.o(i.Pro_Pack_Obd)
    Pro_Parse                                0x08005ea5   Thumb Code   148  protocol.o(i.Pro_Parse)
    Pro_RecData                              0x08005f49   Thumb Code   242  protocol.o(i.Pro_RecData)
    Pro_Task                                 0x08006041   Thumb Code     8  protocol.o(i.Pro_Task)
    Pro_Txh_UartInt                          0x0800604d   Thumb Code    64  protocol.o(i.Pro_Txh_UartInt)
    PwmDataIn                                0x08006091   Thumb Code   190  bspobdii.o(i.PwmDataIn)
    Pwm_Int                                  0x08006159   Thumb Code   618  bspobdii.o(i.Pwm_Int)
    Pwm_Rec_Deal                             0x080063d5   Thumb Code   314  bspobdii.o(i.Pwm_Rec_Deal)
    Pwm_ReceiveOpen                          0x08006519   Thumb Code    80  bspobdii.o(i.Pwm_ReceiveOpen)
    RCC_ADCCLKConfig                         0x08006575   Thumb Code    14  stm32f10x_rcc.o(i.RCC_ADCCLKConfig)
    RCC_AHBPeriphClockCmd                    0x08006589   Thumb Code    18  stm32f10x_rcc.o(i.RCC_AHBPeriphClockCmd)
    RCC_APB1PeriphClockCmd                   0x080065a1   Thumb Code    18  stm32f10x_rcc.o(i.RCC_APB1PeriphClockCmd)
    RCC_APB1PeriphResetCmd                   0x080065b9   Thumb Code    18  stm32f10x_rcc.o(i.RCC_APB1PeriphResetCmd)
    RCC_APB2PeriphClockCmd                   0x080065d1   Thumb Code    18  stm32f10x_rcc.o(i.RCC_APB2PeriphClockCmd)
    RCC_GetClocksFreq                        0x080065e9   Thumb Code   136  stm32f10x_rcc.o(i.RCC_GetClocksFreq)
    ReadSavePara                             0x08006681   Thumb Code   188  bsp.o(i.ReadSavePara)
    Read_Trip_Data                           0x08006775   Thumb Code   242  obdii.o(i.Read_Trip_Data)
    Read_Trips_Data                          0x08006921   Thumb Code   172  obdii.o(i.Read_Trips_Data)
    SVC_Handler                              0x080069e9   Thumb Code     2  stm32f10x_it.o(i.SVC_Handler)
    Send25MsSignal                           0x080069ed   Thumb Code   178  bspobdii.o(i.Send25MsSignal)
    Send5Bps                                 0x08006ab5   Thumb Code   296  bspobdii.o(i.Send5Bps)
    SendData2Usart3                          0x08006be5   Thumb Code    98  bspobdii.o(i.SendData2Usart3)
    SendData2Usart3AndReciveKey              0x08006c51   Thumb Code    92  bspobdii.o(i.SendData2Usart3AndReciveKey)
    SendPwmFrame                             0x08006cb5   Thumb Code   378  bspobdii.o(i.SendPwmFrame)
    SendPwmFrameTimeInit                     0x08006e4d   Thumb Code   130  bspobdii.o(i.SendPwmFrameTimeInit)
    SendVpwFrame                             0x08006ed1   Thumb Code   354  bspobdii.o(i.SendVpwFrame)
    SysTick_CLKSourceConfig                  0x080070b9   Thumb Code    24  misc.o(i.SysTick_CLKSourceConfig)
    SysTick_Handler                          0x080070d1   Thumb Code     4  stm32f10x_it.o(i.SysTick_Handler)
    SystemInit                               0x080070d5   Thumb Code    64  system_stm32f10x.o(i.SystemInit)
    TIM2_IRQHandler                          0x08007125   Thumb Code     2  stm32f10x_it.o(i.TIM2_IRQHandler)
    TIM3_IRQHandler                          0x08007129   Thumb Code    14  stm32f10x_it.o(i.TIM3_IRQHandler)
    TIM_ARRPreloadConfig                     0x0800713d   Thumb Code    20  stm32f10x_tim.o(i.TIM_ARRPreloadConfig)
    TIM_Cmd                                  0x08007151   Thumb Code    20  stm32f10x_tim.o(i.TIM_Cmd)
    TIM_GetCounter                           0x08007165   Thumb Code     4  stm32f10x_tim.o(i.TIM_GetCounter)
    TIM_ITConfig                             0x08007169   Thumb Code    16  stm32f10x_tim.o(i.TIM_ITConfig)
    TIM_SetCounter                           0x08007179   Thumb Code     4  stm32f10x_tim.o(i.TIM_SetCounter)
    TIM_TimeBaseInit                         0x0800717d   Thumb Code   114  stm32f10x_tim.o(i.TIM_TimeBaseInit)
    TimeDly                                  0x08007219   Thumb Code    34  tools.o(i.TimeDly)
    Trace                                    0x0800723b   Thumb Code    22  tools.o(i.Trace)
    TraceHexStr                              0x08007251   Thumb Code    64  tools.o(i.TraceHexStr)
    Trip_Start_initial                       0x08007295   Thumb Code    94  obdii.o(i.Trip_Start_initial)
    Trip_end_up                              0x08007315   Thumb Code   320  obdii.o(i.Trip_end_up)
    USART1_IRQHandler                        0x08007575   Thumb Code     4  stm32f10x_it.o(i.USART1_IRQHandler)
    USART2_IRQHandler                        0x08007579   Thumb Code     2  stm32f10x_it.o(i.USART2_IRQHandler)
    USART3_IRQHandler                        0x0800757b   Thumb Code     4  stm32f10x_it.o(i.USART3_IRQHandler)
    USART_ClearITPendingBit                  0x0800757f   Thumb Code    12  stm32f10x_usart.o(i.USART_ClearITPendingBit)
    USART_Cmd                                0x0800758b   Thumb Code    20  stm32f10x_usart.o(i.USART_Cmd)
    USART_GetFlagStatus                      0x0800759f   Thumb Code    14  stm32f10x_usart.o(i.USART_GetFlagStatus)
    USART_GetITStatus                        0x080075ad   Thumb Code    62  stm32f10x_usart.o(i.USART_GetITStatus)
    USART_ITConfig                           0x080075eb   Thumb Code    48  stm32f10x_usart.o(i.USART_ITConfig)
    USART_Init                               0x0800761d   Thumb Code   176  stm32f10x_usart.o(i.USART_Init)
    USART_SendData                           0x080076d1   Thumb Code     8  stm32f10x_usart.o(i.USART_SendData)
    USB_HP_CAN1_TX_IRQHandler                0x080076d9   Thumb Code    84  driver_can.o(i.USB_HP_CAN1_TX_IRQHandler)
    USB_LP_CAN1_RX0_IRQHandler               0x08007739   Thumb Code    74  driver_can.o(i.USB_LP_CAN1_RX0_IRQHandler)
    Uart_read                                0x08007791   Thumb Code    54  bsp.o(i.Uart_read)
    Uart_send                                0x080077cd   Thumb Code    64  bsp.o(i.Uart_send)
    UsageFault_Handler                       0x08007811   Thumb Code    14  stm32f10x_it.o(i.UsageFault_Handler)
    VpwDataIn                                0x08007839   Thumb Code   176  bspobdii.o(i.VpwDataIn)
    Vpw_Rec_Deal                             0x080078f1   Thumb Code   198  bspobdii.o(i.Vpw_Rec_Deal)
    Vpw_ReceiveOpen                          0x080079c1   Thumb Code    80  bspobdii.o(i.Vpw_ReceiveOpen)
    WriteSavePara                            0x08007a1d   Thumb Code    98  bsp.o(i.WriteSavePara)
    __0sprintf                               0x08007a8d   Thumb Code    34  printfa.o(i.__0sprintf)
    __1sprintf                               0x08007a8d   Thumb Code     0  printfa.o(i.__0sprintf)
    __2sprintf                               0x08007a8d   Thumb Code     0  printfa.o(i.__0sprintf)
    __c89sprintf                             0x08007a8d   Thumb Code     0  printfa.o(i.__0sprintf)
    sprintf                                  0x08007a8d   Thumb Code     0  printfa.o(i.__0sprintf)
    __0vsprintf                              0x08007ab5   Thumb Code    28  printfa.o(i.__0vsprintf)
    __1vsprintf                              0x08007ab5   Thumb Code     0  printfa.o(i.__0vsprintf)
    __2vsprintf                              0x08007ab5   Thumb Code     0  printfa.o(i.__0vsprintf)
    __c89vsprintf                            0x08007ab5   Thumb Code     0  printfa.o(i.__0vsprintf)
    vsprintf                                 0x08007ab5   Thumb Code     0  printfa.o(i.__0vsprintf)
    __scatterload_copy                       0x08007ad5   Thumb Code    14  handlers.o(i.__scatterload_copy)
    __scatterload_null                       0x08007ae3   Thumb Code     2  handlers.o(i.__scatterload_null)
    __scatterload_zeroinit                   0x08007ae5   Thumb Code    14  handlers.o(i.__scatterload_zeroinit)
    indtcbuf                                 0x0800837d   Thumb Code   270  obdii.o(i.indtcbuf)
    main                                     0x080084c1   Thumb Code   108  main.o(i.main)
    trip_speed_check                         0x080085a9   Thumb Code   194  obdii.o(i.trip_speed_check)
    tablePiddataLen                          0x08008688   Data          91  obdii.o(.constdata)
    tablePidBufoffset                        0x080086e3   Data          91  obdii.o(.constdata)
    Region$$Table$$Base                      0x080088c0   Number         0  anon$$obj.o(Region$$Table)
    Region$$Table$$Limit                     0x080088e0   Number         0  anon$$obj.o(Region$$Table)
    SystemCoreClock                          0x20000014   Data           4  system_stm32f10x.o(.data)
    AHBPrescTable                            0x20000018   Data          16  system_stm32f10x.o(.data)
    OverFlag                                 0x20000028   Data           1  bsp.o(.data)
    uarts                                    0x20000034   Data          16  bsp.o(.data)
    accstate                                 0x20000044   Data           1  main.o(.data)
    PowerV                                   0x2000004c   Data           4  main.o(.data)
    SoftDog                                  0x20000050   Data           4  main.o(.data)
    ObdDeal                                  0x2000006c   Data           5  protocol.o(.data)
    ProtocolDBuffer                          0x20000071   Data          90  protocol.o(.data)
    K_Enter_ErrFg                            0x200000ce   Data           1  obdii.o(.data)
    K2000_Enter_ErrFg                        0x200000cf   Data           1  obdii.o(.data)
    AppVinReadCtl                            0x200000d7   Data           1  obdii.o(.data)
    CANTxRingIsTransmiting                   0x200000fc   Data           1  driver_can.o(.data)
    CanBaud                                  0x200000fd   Data           1  driver_can.o(.data)
    CanMode                                  0x200000fe   Data           1  driver_can.o(.data)
    CanFilterRule                            0x200000ff   Data           1  driver_can.o(.data)
    CANRxRingGetPos                          0x20000100   Data           2  driver_can.o(.data)
    CANRxRingPutPos                          0x20000102   Data           2  driver_can.o(.data)
    CANTxRingGetPos                          0x20000104   Data           2  driver_can.o(.data)
    CANTxRingPutPos                          0x20000106   Data           2  driver_can.o(.data)
    BspCtl                                   0x20000120   Data           4  bspobdii.o(.data)
    saveset                                  0x20000168   Data          84  main.o(.bss)
    TempBuf                                  0x200001bc   Data        1024  protocol.o(.bss)
    AppCtrl                                  0x200008c0   Data         778  protocol.o(.bss)
    SendDataLoop                             0x20000bca   Data        3226  protocol.o(.bss)
    ObdData                                  0x20001878   Data         704  obdii.o(.bss)
    trip                                     0x20001b38   Data          25  obdii.o(.bss)
    temptrip                                 0x20001b51   Data          25  obdii.o(.bss)
    trips                                    0x20001b6a   Data          28  obdii.o(.bss)
    gctrl                                    0x20001b86   Data          11  obdii.o(.bss)
    AppPidreadCtl                            0x20001ba4   Data         773  obdii.o(.bss)
    AppDtcreadCtl                            0x20001ea9   Data         260  obdii.o(.bss)
    AppDtcClearCtl                           0x20001fad   Data         260  obdii.o(.bss)
    CANRxRing                                0x200020b4   Data         640  driver_can.o(.bss)
    CANTxRing                                0x20002334   Data         160  driver_can.o(.bss)
    __initial_sp                             0x20004b00   Data           0  startup_stm32f10x_md.o(STACK)



==============================================================================

Memory Map of the image

  Image Entry point : 0x080000ed

  Load Region LR_IROM1 (Base: 0x08000000, Size: 0x00008a10, Max: 0x00020000, ABSOLUTE, COMPRESSED[0x00008968])

    Execution Region ER_IROM1 (Base: 0x08000000, Size: 0x000088e0, Max: 0x00020000, ABSOLUTE)

    Base Addr    Size         Type   Attr      Idx    E Section Name        Object

    0x08000000   0x000000ec   Data   RO         1825    RESET               startup_stm32f10x_md.o
    0x080000ec   0x00000000   Code   RO         3658  * .ARM.Collect$$$$00000000  mc_w.l(entry.o)(mc_w.l)
    0x080000ec   0x00000004   Code   RO         3964    .ARM.Collect$$$$00000001  mc_w.l(entry2.o)(mc_w.l)
    0x080000f0   0x00000004   Code   RO         3967    .ARM.Collect$$$$00000004  mc_w.l(entry5.o)(mc_w.l)
    0x080000f4   0x00000008   Code   RO         3968    .ARM.Collect$$$$00000007  mc_w.l(entry7.o)(mc_w.l)
    0x080000fc   0x00000004   Code   RO         3965    .ARM.Collect$$$$00002712  mc_w.l(entry2.o)(mc_w.l)
    0x08000100   0x00000024   Code   RO         1826    .text               startup_stm32f10x_md.o
    0x08000124   0x00000024   Code   RO         3661    .text               mc_w.l(memcpya.o)(mc_w.l)
    0x08000148   0x00000026   Code   RO         3663    .text               mc_w.l(memseta.o)(mc_w.l)
    0x0800016e   0x00000010   Code   RO         3667    .text               mc_w.l(strlen.o)(mc_w.l)
    0x0800017e   0x000000b0   Code   RO         3932    .text               mf_w.l(fadd.o)(mf_w.l)
    0x0800022e   0x0000006c   Code   RO         3934    .text               mf_w.l(fmul.o)(mf_w.l)
    0x0800029a   0x00000080   Code   RO         3936    .text               mf_w.l(fdiv.o)(mf_w.l)
    0x0800031a   0x00000018   Code   RO         3938    .text               mf_w.l(fscalb.o)(mf_w.l)
    0x08000332   0x0000014a   Code   RO         3940    .text               mf_w.l(dadd.o)(mf_w.l)
    0x0800047c   0x000000e2   Code   RO         3942    .text               mf_w.l(dmul.o)(mf_w.l)
    0x0800055e   0x000000de   Code   RO         3944    .text               mf_w.l(ddiv.o)(mf_w.l)
    0x0800063c   0x00000012   Code   RO         3946    .text               mf_w.l(fflti.o)(mf_w.l)
    0x0800064e   0x0000000a   Code   RO         3948    .text               mf_w.l(ffltui.o)(mf_w.l)
    0x08000658   0x0000001a   Code   RO         3952    .text               mf_w.l(dfltui.o)(mf_w.l)
    0x08000672   0x00000028   Code   RO         3954    .text               mf_w.l(ffixui.o)(mf_w.l)
    0x0800069a   0x0000002e   Code   RO         3956    .text               mf_w.l(dfixui.o)(mf_w.l)
    0x080006c8   0x0000002c   Code   RO         3958    .text               mf_w.l(f2d.o)(mf_w.l)
    0x080006f4   0x00000038   Code   RO         3960    .text               mf_w.l(d2f.o)(mf_w.l)
    0x0800072c   0x00000014   Code   RO         3962    .text               mf_w.l(cfcmple.o)(mf_w.l)
    0x08000740   0x0000002c   Code   RO         3972    .text               mc_w.l(uidiv.o)(mc_w.l)
    0x0800076c   0x00000066   Code   RO         3974    .text               mc_w.l(uldiv.o)(mc_w.l)
    0x080007d2   0x0000001e   Code   RO         3976    .text               mc_w.l(llshl.o)(mc_w.l)
    0x080007f0   0x00000020   Code   RO         3978    .text               mc_w.l(llushr.o)(mc_w.l)
    0x08000810   0x00000024   Code   RO         3980    .text               mc_w.l(llsshr.o)(mc_w.l)
    0x08000834   0x00000000   Code   RO         3982    .text               mc_w.l(iusefp.o)(mc_w.l)
    0x08000834   0x00000070   Code   RO         3983    .text               mf_w.l(fepilogue.o)(mf_w.l)
    0x080008a4   0x000000c2   Code   RO         3985    .text               mf_w.l(depilogue.o)(mf_w.l)
    0x08000966   0x00000030   Code   RO         3987    .text               mf_w.l(dfixul.o)(mf_w.l)
    0x08000996   0x00000002   PAD
    0x08000998   0x00000028   Code   RO         3989    .text               mf_w.l(cdrcmple.o)(mf_w.l)
    0x080009c0   0x00000024   Code   RO         3991    .text               mc_w.l(init.o)(mc_w.l)
    0x080009e4   0x0000005c   Code   RO         4002    .text               mc_w.l(__dczerorl2.o)(mc_w.l)
    0x08000a40   0x00000014   Code   RO         1524    i.ADC_Cmd           stm32f10x_adc.o
    0x08000a54   0x00000014   Code   RO         1525    i.ADC_DMACmd        stm32f10x_adc.o
    0x08000a68   0x0000000e   Code   RO         1532    i.ADC_GetCalibrationStatus  stm32f10x_adc.o
    0x08000a76   0x0000000e   Code   RO         1538    i.ADC_GetResetCalibrationStatus  stm32f10x_adc.o
    0x08000a84   0x00000048   Code   RO         1542    i.ADC_Init          stm32f10x_adc.o
    0x08000acc   0x00000074   Code   RO         1546    i.ADC_RegularChannelConfig  stm32f10x_adc.o
    0x08000b40   0x0000000a   Code   RO         1547    i.ADC_ResetCalibration  stm32f10x_adc.o
    0x08000b4a   0x00000014   Code   RO         1549    i.ADC_SoftwareStartConvCmd  stm32f10x_adc.o
    0x08000b5e   0x0000000a   Code   RO         1551    i.ADC_StartCalibration  stm32f10x_adc.o
    0x08000b68   0x00000094   Code   RO         2919    i.AccOff_Deal       OBD.lib(obdii.o)(OBD.lib)
    0x08000bfc   0x000000f4   Code   RO         2921    i.App_Accstate      OBD.lib(obdii.o)(OBD.lib)
    0x08000cf0   0x00000034   Code   RO         2922    i.App_ClearDtc      OBD.lib(obdii.o)(OBD.lib)
    0x08000d24   0x00000068   Code   RO         2923    i.App_CmdClearDtc   OBD.lib(obdii.o)(OBD.lib)
    0x08000d8c   0x000001ac   Code   RO         2924    i.App_CmdDtc        OBD.lib(obdii.o)(OBD.lib)
    0x08000f38   0x00000098   Code   RO         2925    i.App_ExeCmd        OBD.lib(obdii.o)(OBD.lib)
    0x08000fd0   0x00000078   Code   RO         2926    i.App_ReadDtc       OBD.lib(obdii.o)(OBD.lib)
    0x08001048   0x00000138   Code   RO         2928    i.App_ReadVIN       OBD.lib(obdii.o)(OBD.lib)
    0x08001180   0x00000058   Code   RO         2638    i.App_Task          protocol.o
    0x080011d8   0x00000090   Code   RO         2929    i.App_VssDeal       OBD.lib(obdii.o)(OBD.lib)
    0x08001268   0x00000184   Code   RO         2027    i.BSP_GpioConfig    bsp.o
    0x080013ec   0x00000058   Code   RO         2028    i.BSP_InterruptConfig  bsp.o
    0x08001444   0x0000000c   Code   RO         2029    i.BSP_PowerAdcValue  bsp.o
    0x08001450   0x00000004   Code   RO         2030    i.BSP_RESET_DOG     bsp.o
    0x08001454   0x000000d8   Code   RO         2031    i.BSP_ScanAdcChannel  bsp.o
    0x0800152c   0x00000054   Code   RO         2033    i.BSP_SysInit       bsp.o
    0x08001580   0x00000020   Code   RO         2034    i.BSP_SysReset      bsp.o
    0x080015a0   0x00000058   Code   RO         2035    i.BSP_SysTick       bsp.o
    0x080015f8   0x00000044   Code   RO         2036    i.BSP_SysTick_Config  bsp.o
    0x0800163c   0x000000f4   Code   RO         2037    i.BSP_UartInit      bsp.o
    0x08001730   0x00000024   Code   RO         2038    i.BSP_WDG_Init      bsp.o
    0x08001754   0x00000058   Code   RO         3366    i.BspObdiiRead      OBD.lib(bspobdii.o)(OBD.lib)
    0x080017ac   0x000001e0   Code   RO         3367    i.BspObdii_CanExtRead  OBD.lib(bspobdii.o)(OBD.lib)
    0x0800198c   0x000001c0   Code   RO         3368    i.BspObdii_CanStdRead  OBD.lib(bspobdii.o)(OBD.lib)
    0x08001b4c   0x000001d8   Code   RO         3369    i.BspObdii_Iso9141Read  OBD.lib(bspobdii.o)(OBD.lib)
    0x08001d24   0x000001e8   Code   RO         3370    i.BspObdii_Kwp2000Read  OBD.lib(bspobdii.o)(OBD.lib)
    0x08001f0c   0x0000019c   Code   RO         3371    i.BspObdii_PwmRead  OBD.lib(bspobdii.o)(OBD.lib)
    0x080020a8   0x0000019c   Code   RO         3372    i.BspObdii_VpwRead  OBD.lib(bspobdii.o)(OBD.lib)
    0x08002244   0x00000048   Code   RO         3373    i.BspObdii_initial  OBD.lib(bspobdii.o)(OBD.lib)
    0x0800228c   0x00000028   Code   RO         1830    i.BusFault_Handler  stm32f10x_it.o
    0x080022b4   0x00000048   Code   RO         2755    i.ByteToStr         tools.o
    0x080022fc   0x00000044   Code   RO         3235    i.CAN1_RX1_IRQHandler  OBD.lib(driver_can.o)(OBD.lib)
    0x08002340   0x00000024   Code   RO           89    i.CAN_CancelTransmit  stm32f10x_can.o
    0x08002364   0x00000078   Code   RO           91    i.CAN_ClearITPendingBit  stm32f10x_can.o
    0x080023dc   0x0000002c   Code   RO           93    i.CAN_DeInit        stm32f10x_can.o
    0x08002408   0x00000016   Code   RO           94    i.CAN_FIFORelease   stm32f10x_can.o
    0x0800241e   0x00000002   PAD
    0x08002420   0x000000d8   Code   RO           95    i.CAN_FilterInit    stm32f10x_can.o
    0x080024f8   0x00000010   Code   RO           98    i.CAN_ITConfig      stm32f10x_can.o
    0x08002508   0x000000e8   Code   RO           99    i.CAN_Init          stm32f10x_can.o
    0x080025f0   0x0000007c   Code   RO          101    i.CAN_Receive       stm32f10x_can.o
    0x0800266c   0x0000002c   Code   RO          102    i.CAN_SlaveStartBank  stm32f10x_can.o
    0x08002698   0x0000001e   Code   RO          103    i.CAN_Sleep         stm32f10x_can.o
    0x080026b6   0x0000009a   Code   RO          105    i.CAN_Transmit      stm32f10x_can.o
    0x08002750   0x0000000c   Code   RO         2930    i.CalcTimeClear     OBD.lib(obdii.o)(OBD.lib)
    0x0800275c   0x00000130   Code   RO         3374    i.CanExt250K_EntryLink  OBD.lib(bspobdii.o)(OBD.lib)
    0x0800288c   0x00000130   Code   RO         3375    i.CanExt500K_EntryLink  OBD.lib(bspobdii.o)(OBD.lib)
    0x080029bc   0x0000016c   Code   RO         3376    i.CanStd250K_EntryLink  OBD.lib(bspobdii.o)(OBD.lib)
    0x08002b28   0x0000016c   Code   RO         3377    i.CanStd500K_EntryLink  OBD.lib(bspobdii.o)(OBD.lib)
    0x08002c94   0x0000004c   Code   RO         2041    i.CheckSysTick      bsp.o
    0x08002ce0   0x0000004c   Code   RO         2043    i.CheckSysTicki     bsp.o
    0x08002d2c   0x00000016   Code   RO         1742    i.DMA_Cmd           stm32f10x_dma.o
    0x08002d42   0x00000002   PAD
    0x08002d44   0x000000ec   Code   RO         1743    i.DMA_DeInit        stm32f10x_dma.o
    0x08002e30   0x0000003a   Code   RO         1748    i.DMA_Init          stm32f10x_dma.o
    0x08002e6a   0x00000002   Code   RO         1831    i.DebugMon_Handler  stm32f10x_it.o
    0x08002e6c   0x00000134   Code   RO         3378    i.DetectRate        OBD.lib(bspobdii.o)(OBD.lib)
    0x08002fa0   0x00000170   Code   RO         3236    i.Driver_CAN_AddIdList16  OBD.lib(driver_can.o)(OBD.lib)
    0x08003110   0x000000dc   Code   RO         3237    i.Driver_CAN_AddIdList32  OBD.lib(driver_can.o)(OBD.lib)
    0x080031ec   0x00000028   Code   RO         3238    i.Driver_CAN_ClearRxBuffer  OBD.lib(driver_can.o)(OBD.lib)
    0x08003214   0x00000030   Code   RO         3239    i.Driver_CAN_ClearTxBuffer  OBD.lib(driver_can.o)(OBD.lib)
    0x08003244   0x00000010   Code   RO         3240    i.Driver_CAN_FilterIdListAdd  OBD.lib(driver_can.o)(OBD.lib)
    0x08003254   0x0000003a   Code   RO         3241    i.Driver_CAN_FilterIdListClear  OBD.lib(driver_can.o)(OBD.lib)
    0x0800328e   0x00000002   PAD
    0x08003290   0x000000e0   Code   RO         3242    i.Driver_CAN_Init   OBD.lib(driver_can.o)(OBD.lib)
    0x08003370   0x00000074   Code   RO         3243    i.Driver_CAN_Receive  OBD.lib(driver_can.o)(OBD.lib)
    0x080033e4   0x000000a4   Code   RO         3244    i.Driver_CAN_Send   OBD.lib(driver_can.o)(OBD.lib)
    0x08003488   0x0000000c   Code   RO         3245    i.Driver_CAN_SetBaud  OBD.lib(driver_can.o)(OBD.lib)
    0x08003494   0x00000074   Code   RO         3246    i.Driver_CAN_SetFilterRule  OBD.lib(driver_can.o)(OBD.lib)
    0x08003508   0x0000000c   Code   RO         3247    i.Driver_CAN_SetMode  OBD.lib(driver_can.o)(OBD.lib)
    0x08003514   0x00000084   Code   RO         3248    i.Driver_CAN_Uninit  OBD.lib(driver_can.o)(OBD.lib)
    0x08003598   0x0000006c   Code   RO         3249    i.Driver_CAN_UpdateParameter  OBD.lib(driver_can.o)(OBD.lib)
    0x08003604   0x00000002   Code   RO         1832    i.EXTI15_10_IRQHandler  stm32f10x_it.o
    0x08003606   0x00000002   PAD
    0x08003608   0x00000088   Code   RO         2935    i.Ecu_MilState      OBD.lib(obdii.o)(OBD.lib)
    0x08003690   0x00000044   Code   RO         2044    i.Encryption        bsp.o
    0x080036d4   0x0000003c   Code   RO          219    i.FLASH_ErasePage   stm32f10x_flash.o
    0x08003710   0x00000028   Code   RO          220    i.FLASH_GetBank1Status  stm32f10x_flash.o
    0x08003738   0x00000010   Code   RO          229    i.FLASH_Lock        stm32f10x_flash.o
    0x08003748   0x00000048   Code   RO          234    i.FLASH_ProgramWord  stm32f10x_flash.o
    0x08003790   0x00000018   Code   RO          237    i.FLASH_Unlock      stm32f10x_flash.o
    0x080037a8   0x00000024   Code   RO          241    i.FLASH_WaitForLastOperation  stm32f10x_flash.o
    0x080037cc   0x00000010   Code   RO         3380    i.GETSUB            OBD.lib(bspobdii.o)(OBD.lib)
    0x080037dc   0x000000a4   Code   RO          392    i.GPIO_Init         stm32f10x_gpio.o
    0x08003880   0x00000058   Code   RO          394    i.GPIO_PinRemapConfig  stm32f10x_gpio.o
    0x080038d8   0x0000000e   Code   RO          396    i.GPIO_ReadInputDataBit  stm32f10x_gpio.o
    0x080038e6   0x00000004   Code   RO          399    i.GPIO_ResetBits    stm32f10x_gpio.o
    0x080038ea   0x00000004   Code   RO          400    i.GPIO_SetBits      stm32f10x_gpio.o
    0x080038ee   0x0000000a   Code   RO          403    i.GPIO_WriteBit     stm32f10x_gpio.o
    0x080038f8   0x00000158   Code   RO         2436    i.Gas050fMoleDeno   oilarith.o
    0x08003a50   0x0000007c   Code   RO         2437    i.Gas0fNo05         oilarith.o
    0x08003acc   0x00000034   Code   RO         3381    i.GetPwmCrc         OBD.lib(bspobdii.o)(OBD.lib)
    0x08003b00   0x0000000c   Code   RO         2045    i.GetSysTick        bsp.o
    0x08003b0c   0x00000028   Code   RO         1833    i.HardFault_Handler  stm32f10x_it.o
    0x08003b34   0x00000010   Code   RO         1476    i.IWDG_Enable       stm32f10x_iwdg.o
    0x08003b44   0x00000010   Code   RO         1478    i.IWDG_ReloadCounter  stm32f10x_iwdg.o
    0x08003b54   0x0000000c   Code   RO         1479    i.IWDG_SetPrescaler  stm32f10x_iwdg.o
    0x08003b60   0x0000000c   Code   RO         1480    i.IWDG_SetReload    stm32f10x_iwdg.o
    0x08003b6c   0x0000000c   Code   RO         1481    i.IWDG_WriteAccessCmd  stm32f10x_iwdg.o
    0x08003b78   0x000003dc   Code   RO         3382    i.Iso9141_EntryLink  OBD.lib(bspobdii.o)(OBD.lib)
    0x08003f54   0x0000002c   Code   RO         3383    i.IsoRecClear       OBD.lib(bspobdii.o)(OBD.lib)
    0x08003f80   0x00000034   Code   RO         3384    i.IsoUartInt        OBD.lib(bspobdii.o)(OBD.lib)
    0x08003fb4   0x00000140   Code   RO         3385    i.Iso_DataRec       OBD.lib(bspobdii.o)(OBD.lib)
    0x080040f4   0x0000001c   Code   RO         3386    i.Iso_Initial       OBD.lib(bspobdii.o)(OBD.lib)
    0x08004110   0x00000054   Code   RO         3388    i.Iso_Port_init     OBD.lib(bspobdii.o)(OBD.lib)
    0x08004164   0x000001e0   Code   RO         3389    i.Kwp25bps_EntryLink  OBD.lib(bspobdii.o)(OBD.lib)
    0x08004344   0x000000e0   Code   RO         3390    i.Kwp_DataRec       OBD.lib(bspobdii.o)(OBD.lib)
    0x08004424   0x00000064   Code   RO         2937    i.LinkBreakCheck    OBD.lib(obdii.o)(OBD.lib)
    0x08004488   0x00000028   Code   RO         1834    i.MemManage_Handler  stm32f10x_it.o
    0x080044b0   0x00000022   Code   RO         2442    i.MultiplyFlt       oilarith.o
    0x080044d2   0x00000026   Code   RO         2765    i.MyPrintf          tools.o
    0x080044f8   0x00000020   Code   RO         1835    i.NMI_Handler       stm32f10x_it.o
    0x08004518   0x0000005c   Code   RO            1    i.NVIC_Init         misc.o
    0x08004574   0x00000014   Code   RO            2    i.NVIC_PriorityGroupConfig  misc.o
    0x08004588   0x00000020   Code   RO         1836    i.NVIC_SystemReset  stm32f10x_it.o
    0x080045a8   0x00000030   Code   RO         2640    i.ObdDealInital     protocol.o
    0x080045d8   0x00000164   Code   RO         2641    i.ObdSendDataDeal   protocol.o
    0x0800473c   0x00000078   Code   RO         2938    i.Obd_App_Initial   OBD.lib(obdii.o)(OBD.lib)
    0x080047b4   0x00000044   Code   RO         2939    i.Obd_GetPid_SupZiCheck  OBD.lib(obdii.o)(OBD.lib)
    0x080047f8   0x000002b8   Code   RO         2940    i.Obd_PidCycle_Deal  OBD.lib(obdii.o)(OBD.lib)
    0x08004ab0   0x00000144   Code   RO         2941    i.Obd_ReadPidSup    OBD.lib(obdii.o)(OBD.lib)
    0x08004bf4   0x00000200   Code   RO         2942    i.Obd_ReadPid_Ready  OBD.lib(obdii.o)(OBD.lib)
    0x08004df4   0x00000104   Code   RO         2943    i.Obd_ReadPid_Val   OBD.lib(obdii.o)(OBD.lib)
    0x08004ef8   0x00000104   Code   RO         2944    i.Obd_Read_ALLPid   OBD.lib(obdii.o)(OBD.lib)
    0x08004ffc   0x000005c8   Code   RO         2946    i.Obd_task          OBD.lib(obdii.o)(OBD.lib)
    0x080055c4   0x0000012c   Code   RO         2444    i.Oil_Arith_PID0b   oilarith.o
    0x080056f0   0x00000058   Code   RO         2445    i.Oil_Arith_PID10   oilarith.o
    0x08005748   0x00000030   Code   RO         2446    i.Oil_Arith_PID43   oilarith.o
    0x08005778   0x00000120   Code   RO         2947    i.Oil_Calc          OBD.lib(obdii.o)(OBD.lib)
    0x08005898   0x00000002   Code   RO         1837    i.PendSV_Handler    stm32f10x_it.o
    0x0800589a   0x00000002   PAD
    0x0800589c   0x000001ac   Code   RO         2234    i.PowerCheck        main.o
    0x08005a48   0x00000030   Code   RO         2642    i.Pro_Get_UartBuf_Data  protocol.o
    0x08005a78   0x00000048   Code   RO         2643    i.Pro_Initial       protocol.o
    0x08005ac0   0x00000178   Code   RO         2646    i.Pro_Pack_Answer   protocol.o
    0x08005c38   0x0000026c   Code   RO         2647    i.Pro_Pack_Obd      protocol.o
    0x08005ea4   0x000000a4   Code   RO         2648    i.Pro_Parse         protocol.o
    0x08005f48   0x000000f8   Code   RO         2649    i.Pro_RecData       protocol.o
    0x08006040   0x0000000c   Code   RO         2650    i.Pro_Task          protocol.o
    0x0800604c   0x00000044   Code   RO         2651    i.Pro_Txh_UartInt   protocol.o
    0x08006090   0x000000c8   Code   RO         3392    i.PwmDataIn         OBD.lib(bspobdii.o)(OBD.lib)
    0x08006158   0x0000027c   Code   RO         3397    i.Pwm_Int           OBD.lib(bspobdii.o)(OBD.lib)
    0x080063d4   0x00000144   Code   RO         3398    i.Pwm_Rec_Deal      OBD.lib(bspobdii.o)(OBD.lib)
    0x08006518   0x0000005c   Code   RO         3399    i.Pwm_ReceiveOpen   OBD.lib(bspobdii.o)(OBD.lib)
    0x08006574   0x00000014   Code   RO          563    i.RCC_ADCCLKConfig  stm32f10x_rcc.o
    0x08006588   0x00000018   Code   RO          564    i.RCC_AHBPeriphClockCmd  stm32f10x_rcc.o
    0x080065a0   0x00000018   Code   RO          565    i.RCC_APB1PeriphClockCmd  stm32f10x_rcc.o
    0x080065b8   0x00000018   Code   RO          566    i.RCC_APB1PeriphResetCmd  stm32f10x_rcc.o
    0x080065d0   0x00000018   Code   RO          567    i.RCC_APB2PeriphClockCmd  stm32f10x_rcc.o
    0x080065e8   0x00000098   Code   RO          575    i.RCC_GetClocksFreq  stm32f10x_rcc.o
    0x08006680   0x000000f4   Code   RO         2047    i.ReadSavePara      bsp.o
    0x08006774   0x000001ac   Code   RO         2948    i.Read_Trip_Data    OBD.lib(obdii.o)(OBD.lib)
    0x08006920   0x000000c8   Code   RO         2949    i.Read_Trips_Data   OBD.lib(obdii.o)(OBD.lib)
    0x080069e8   0x00000002   Code   RO         1838    i.SVC_Handler       stm32f10x_it.o
    0x080069ea   0x00000002   PAD
    0x080069ec   0x000000c8   Code   RO         3400    i.Send25MsSignal    OBD.lib(bspobdii.o)(OBD.lib)
    0x08006ab4   0x00000130   Code   RO         3401    i.Send5Bps          OBD.lib(bspobdii.o)(OBD.lib)
    0x08006be4   0x0000006c   Code   RO         3402    i.SendData2Usart3   OBD.lib(bspobdii.o)(OBD.lib)
    0x08006c50   0x00000064   Code   RO         3403    i.SendData2Usart3AndReciveKey  OBD.lib(bspobdii.o)(OBD.lib)
    0x08006cb4   0x00000198   Code   RO         3404    i.SendPwmFrame      OBD.lib(bspobdii.o)(OBD.lib)
    0x08006e4c   0x00000082   Code   RO         3405    i.SendPwmFrameTimeInit  OBD.lib(bspobdii.o)(OBD.lib)
    0x08006ece   0x00000002   PAD
    0x08006ed0   0x0000017c   Code   RO         3406    i.SendVpwFrame      OBD.lib(bspobdii.o)(OBD.lib)
    0x0800704c   0x0000006c   Code   RO         1995    i.SetSysClockToHSE  system_stm32f10x.o
    0x080070b8   0x00000018   Code   RO            5    i.SysTick_CLKSourceConfig  misc.o
    0x080070d0   0x00000004   Code   RO         1839    i.SysTick_Handler   stm32f10x_it.o
    0x080070d4   0x00000050   Code   RO         1997    i.SystemInit        system_stm32f10x.o
    0x08007124   0x00000002   Code   RO         1840    i.TIM2_IRQHandler   stm32f10x_it.o
    0x08007126   0x00000002   PAD
    0x08007128   0x00000014   Code   RO         1841    i.TIM3_IRQHandler   stm32f10x_it.o
    0x0800713c   0x00000014   Code   RO          765    i.TIM_ARRPreloadConfig  stm32f10x_tim.o
    0x08007150   0x00000014   Code   RO          777    i.TIM_Cmd           stm32f10x_tim.o
    0x08007164   0x00000004   Code   RO          796    i.TIM_GetCounter    stm32f10x_tim.o
    0x08007168   0x00000010   Code   RO          802    i.TIM_ITConfig      stm32f10x_tim.o
    0x08007178   0x00000004   Code   RO          842    i.TIM_SetCounter    stm32f10x_tim.o
    0x0800717c   0x0000009c   Code   RO          848    i.TIM_TimeBaseInit  stm32f10x_tim.o
    0x08007218   0x00000022   Code   RO         2770    i.TimeDly           tools.o
    0x0800723a   0x00000016   Code   RO         2771    i.Trace             tools.o
    0x08007250   0x00000044   Code   RO         2772    i.TraceHexStr       tools.o
    0x08007294   0x00000080   Code   RO         2951    i.Trip_Start_initial  OBD.lib(obdii.o)(OBD.lib)
    0x08007314   0x00000260   Code   RO         2952    i.Trip_end_up       OBD.lib(obdii.o)(OBD.lib)
    0x08007574   0x00000004   Code   RO         1842    i.USART1_IRQHandler  stm32f10x_it.o
    0x08007578   0x00000002   Code   RO         1843    i.USART2_IRQHandler  stm32f10x_it.o
    0x0800757a   0x00000004   Code   RO         1844    i.USART3_IRQHandler  stm32f10x_it.o
    0x0800757e   0x0000000c   Code   RO         1297    i.USART_ClearITPendingBit  stm32f10x_usart.o
    0x0800758a   0x00000014   Code   RO         1300    i.USART_Cmd         stm32f10x_usart.o
    0x0800759e   0x0000000e   Code   RO         1303    i.USART_GetFlagStatus  stm32f10x_usart.o
    0x080075ac   0x0000003e   Code   RO         1304    i.USART_GetITStatus  stm32f10x_usart.o
    0x080075ea   0x00000030   Code   RO         1306    i.USART_ITConfig    stm32f10x_usart.o
    0x0800761a   0x00000002   PAD
    0x0800761c   0x000000b4   Code   RO         1307    i.USART_Init        stm32f10x_usart.o
    0x080076d0   0x00000008   Code   RO         1317    i.USART_SendData    stm32f10x_usart.o
    0x080076d8   0x00000060   Code   RO         3250    i.USB_HP_CAN1_TX_IRQHandler  OBD.lib(driver_can.o)(OBD.lib)
    0x08007738   0x00000058   Code   RO         3251    i.USB_LP_CAN1_RX0_IRQHandler  OBD.lib(driver_can.o)(OBD.lib)
    0x08007790   0x0000003c   Code   RO         2050    i.Uart_read         bsp.o
    0x080077cc   0x00000044   Code   RO         2051    i.Uart_send         bsp.o
    0x08007810   0x00000028   Code   RO         1845    i.UsageFault_Handler  stm32f10x_it.o
    0x08007838   0x000000b8   Code   RO         3407    i.VpwDataIn         OBD.lib(bspobdii.o)(OBD.lib)
    0x080078f0   0x000000d0   Code   RO         3410    i.Vpw_Rec_Deal      OBD.lib(bspobdii.o)(OBD.lib)
    0x080079c0   0x0000005c   Code   RO         3411    i.Vpw_ReceiveOpen   OBD.lib(bspobdii.o)(OBD.lib)
    0x08007a1c   0x00000070   Code   RO         2053    i.WriteSavePara     bsp.o
    0x08007a8c   0x00000028   Code   RO         3906    i.__0sprintf        mc_w.l(printfa.o)(mc_w.l)
    0x08007ab4   0x00000020   Code   RO         3910    i.__0vsprintf       mc_w.l(printfa.o)(mc_w.l)
    0x08007ad4   0x0000000e   Code   RO         3996    i.__scatterload_copy  mc_w.l(handlers.o)(mc_w.l)
    0x08007ae2   0x00000002   Code   RO         3997    i.__scatterload_null  mc_w.l(handlers.o)(mc_w.l)
    0x08007ae4   0x0000000e   Code   RO         3998    i.__scatterload_zeroinit  mc_w.l(handlers.o)(mc_w.l)
    0x08007af2   0x00000002   PAD
    0x08007af4   0x00000154   Code   RO         3911    i._fp_digits        mc_w.l(printfa.o)(mc_w.l)
    0x08007c48   0x000006d4   Code   RO         3912    i._printf_core      mc_w.l(printfa.o)(mc_w.l)
    0x0800831c   0x00000026   Code   RO         3913    i._printf_post_padding  mc_w.l(printfa.o)(mc_w.l)
    0x08008342   0x0000002e   Code   RO         3914    i._printf_pre_padding  mc_w.l(printfa.o)(mc_w.l)
    0x08008370   0x0000000a   Code   RO         3916    i._sputc            mc_w.l(printfa.o)(mc_w.l)
    0x0800837a   0x00000002   PAD
    0x0800837c   0x00000144   Code   RO         2954    i.indtcbuf          OBD.lib(obdii.o)(OBD.lib)
    0x080084c0   0x000000e8   Code   RO         2235    i.main              main.o
    0x080085a8   0x000000e0   Code   RO         2955    i.trip_speed_check  OBD.lib(obdii.o)(OBD.lib)
    0x08008688   0x00000138   Data   RO         2959    .constdata          OBD.lib(obdii.o)(OBD.lib)
    0x080087c0   0x00000100   Data   RO         3413    .constdata          OBD.lib(bspobdii.o)(OBD.lib)
    0x080088c0   0x00000020   Data   RO         3994    Region$$Table       anon$$obj.o


    Execution Region RW_IRAM1 (Base: 0x20000000, Size: 0x00004b00, Max: 0x00005000, ABSOLUTE, COMPRESSED[0x00000088])

    Base Addr    Size         Type   Attr      Idx    E Section Name        Object

    0x20000000   0x00000014   Data   RW          595    .data               stm32f10x_rcc.o
    0x20000014   0x00000014   Data   RW         1998    .data               system_stm32f10x.o
    0x20000028   0x0000001c   Data   RW         2057    .data               bsp.o
    0x20000044   0x00000014   Data   RW         2237    .data               main.o
    0x20000058   0x00000073   Data   RW         2657    .data               protocol.o
    0x200000cb   0x00000001   PAD
    0x200000cc   0x0000002f   Data   RW         2960    .data               OBD.lib(obdii.o)(OBD.lib)
    0x200000fb   0x00000001   PAD
    0x200000fc   0x0000000c   Data   RW         3253    .data               OBD.lib(driver_can.o)(OBD.lib)
    0x20000108   0x00000028   Data   RW         3414    .data               OBD.lib(bspobdii.o)(OBD.lib)
    0x20000130   0x0000008c   Zero   RW         2236    .bss                main.o
    0x200001bc   0x000016bc   Zero   RW         2653    .bss                protocol.o
    0x20001878   0x00000839   Zero   RW         2956    .bss                OBD.lib(obdii.o)(OBD.lib)
    0x200020b1   0x00000003   PAD
    0x200020b4   0x00000320   Zero   RW         3252    .bss                OBD.lib(driver_can.o)(OBD.lib)
    0x200023d4   0x0000172c   Zero   RW         3412    .bss                OBD.lib(bspobdii.o)(OBD.lib)
    0x20003b00   0x00001000   Zero   RW         1823    STACK               startup_stm32f10x_md.o


==============================================================================

Image component sizes


      Code (inc. data)   RO Data    RW Data    ZI Data      Debug   Object Name

      1976        276          0         28          0          0   bsp.o
         0          0          0          0          0          0   core_cm3.o
       660        236          0         20        140          0   main.o
       136         10          0          0          0          0   misc.o
       938        190          0          0          0          0   oilarith.o
      2100        246          0        115       5820          0   protocol.o
        36          8        236          0       4096          0   startup_stm32f10x_md.o
       296         10          0          0          0          0   stm32f10x_adc.o
      1038         20          0          0          0          0   stm32f10x_can.o
       316          8          0          0          0          0   stm32f10x_dma.o
       248         30          0          0          0          0   stm32f10x_flash.o
       284          6          0          0          0          0   stm32f10x_gpio.o
       268        138          0          0          0          0   stm32f10x_it.o
        68         30          0          0          0          0   stm32f10x_iwdg.o
       268         46          0         20          0          0   stm32f10x_rcc.o
       220         42          0          0          0          0   stm32f10x_tim.o
       344          4          0          0          0          0   stm32f10x_usart.o
       188         26          0         20          0          0   system_stm32f10x.o
       234         24          0          0          0          0   tools.o

    ----------------------------------------------------------------------
      9632       1350        268        204      10056          0   Object Totals
         0          0         32          0          0          0   (incl. Generated)
        14          0          0          1          0          1   (incl. Padding)

    ----------------------------------------------------------------------

      Code (inc. data)   RO Data    RW Data    ZI Data      Debug   Library Member Name

     10170        914        256         40       5932          0   bspobdii.o
      1886        128          0         12        800          0   driver_can.o
      7872       1664        312         47       2105          0   obdii.o
        92          0          0          0          0          0   __dczerorl2.o
         0          0          0          0          0          0   entry.o
         8          4          0          0          0          0   entry2.o
         4          0          0          0          0          0   entry5.o
         8          4          0          0          0          0   entry7.o
        30          0          0          0          0          0   handlers.o
        36          8          0          0          0          0   init.o
         0          0          0          0          0          0   iusefp.o
        30          0          0          0          0          0   llshl.o
        36          0          0          0          0          0   llsshr.o
        32          0          0          0          0          0   llushr.o
        36          0          0          0          0          0   memcpya.o
        38          0          0          0          0          0   memseta.o
      2254         92          0          0          0          0   printfa.o
        16          0          0          0          0          0   strlen.o
        44          0          0          0          0          0   uidiv.o
       102          0          0          0          0          0   uldiv.o
        40          2          0          0          0          0   cdrcmple.o
        20          0          0          0          0          0   cfcmple.o
        56          0          0          0          0          0   d2f.o
       330          0          0          0          0          0   dadd.o
       222          0          0          0          0          0   ddiv.o
       194          0          0          0          0          0   depilogue.o
        46          0          0          0          0          0   dfixui.o
        48          0          0          0          0          0   dfixul.o
        26          0          0          0          0          0   dfltui.o
       226          0          0          0          0          0   dmul.o
        44          0          0          0          0          0   f2d.o
       176          0          0          0          0          0   fadd.o
       128          0          0          0          0          0   fdiv.o
       112          0          0          0          0          0   fepilogue.o
        40          0          0          0          0          0   ffixui.o
        18          0          0          0          0          0   fflti.o
        10          0          0          0          0          0   ffltui.o
       108          0          0          0          0          0   fmul.o
        24          0          0          0          0          0   fscalb.o

    ----------------------------------------------------------------------
     24572       2816        568        100       8840          0   Library Totals
        10          0          0          1          3          0   (incl. Padding)

    ----------------------------------------------------------------------

      Code (inc. data)   RO Data    RW Data    ZI Data      Debug   Library Name

     19928       2706        568         99       8837     332967   OBD.lib
      2766        108          0          0          0       1296   mc_w.l
      1868          2          0          0          0       1776   mf_w.l

    ----------------------------------------------------------------------
     24572       2816        568        100       8840          0   Library Totals

    ----------------------------------------------------------------------

==============================================================================


      Code (inc. data)   RO Data    RW Data    ZI Data      Debug   

     34204       4166        836        304      18896     736656   Grand Totals
     34204       4166        836        136      18896     736656   ELF Image Totals (compressed)
     34204       4166        836        136          0          0   ROM Totals

==============================================================================

    Total RO  Size (Code + RO Data)                35040 (  34.22kB)
    Total RW  Size (RW Data + ZI Data)             19200 (  18.75kB)
    Total ROM Size (Code + RO Data + RW Data)      35176 (  34.35kB)

==============================================================================

